{
	"FuncOutputs.sol": {
		"FuncOutputs": {
			"abi": [
				{
					"inputs": [],
					"name": "assigned",
					"outputs": [
						{
							"internalType": "uint256",
							"name": "x",
							"type": "uint256"
						},
						{
							"internalType": "bool",
							"name": "b",
							"type": "bool"
						}
					],
					"stateMutability": "pure",
					"type": "function"
				},
				{
					"inputs": [],
					"name": "destructReturnFuncs",
					"outputs": [],
					"stateMutability": "pure",
					"type": "function"
				},
				{
					"inputs": [],
					"name": "returnMany",
					"outputs": [
						{
							"internalType": "uint256",
							"name": "",
							"type": "uint256"
						},
						{
							"internalType": "bool",
							"name": "",
							"type": "bool"
						}
					],
					"stateMutability": "pure",
					"type": "function"
				},
				{
					"inputs": [],
					"name": "returnManyWithNames",
					"outputs": [
						{
							"internalType": "uint256",
							"name": "x",
							"type": "uint256"
						},
						{
							"internalType": "bool",
							"name": "b",
							"type": "bool"
						}
					],
					"stateMutability": "pure",
					"type": "function"
				}
			],
			"devdoc": {
				"kind": "dev",
				"methods": {},
				"version": 1
			},
			"evm": {
				"assembly": "    /* \"FuncOutputs.sol\":59:534  contract FuncOutputs{... */\n  mstore(0x40, 0x80)\n  callvalue\n  dup1\n  iszero\n  tag_1\n  jumpi\n  0x00\n  dup1\n  revert\ntag_1:\n  pop\n  dataSize(sub_0)\n  dup1\n  dataOffset(sub_0)\n  0x00\n  codecopy\n  0x00\n  return\nstop\n\nsub_0: assembly {\n        /* \"FuncOutputs.sol\":59:534  contract FuncOutputs{... */\n      mstore(0x40, 0x80)\n      callvalue\n      dup1\n      iszero\n      tag_1\n      jumpi\n      0x00\n      dup1\n      revert\n    tag_1:\n      pop\n      jumpi(tag_2, lt(calldatasize, 0x04))\n      shr(0xe0, calldataload(0x00))\n      dup1\n      0x42cbcba7\n      eq\n      tag_3\n      jumpi\n      dup1\n      0x86887544\n      eq\n      tag_4\n      jumpi\n      dup1\n      0xadb4d990\n      eq\n      tag_5\n      jumpi\n      dup1\n      0xb5492bce\n      eq\n      tag_6\n      jumpi\n    tag_2:\n      0x00\n      dup1\n      revert\n        /* \"FuncOutputs.sol\":400:531  function destructReturnFuncs() public pure {... */\n    tag_3:\n      tag_7\n      tag_8\n      jump\t// in\n    tag_7:\n      stop\n        /* \"FuncOutputs.sol\":86:175  function returnMany() public pure returns(uint, bool){... */\n    tag_4:\n      tag_9\n      tag_10\n      jump\t// in\n    tag_9:\n      mload(0x40)\n      tag_11\n      swap3\n      swap2\n      swap1\n      tag_12\n      jump\t// in\n    tag_11:\n      mload(0x40)\n      dup1\n      swap2\n      sub\n      swap1\n      return\n        /* \"FuncOutputs.sol\":294:392  function assigned() public pure returns(uint x, bool b){... */\n    tag_5:\n      tag_13\n      tag_14\n      jump\t// in\n    tag_13:\n      mload(0x40)\n      tag_15\n      swap3\n      swap2\n      swap1\n      tag_12\n      jump\t// in\n    tag_15:\n      mload(0x40)\n      dup1\n      swap2\n      sub\n      swap1\n      return\n        /* \"FuncOutputs.sol\":183:285  function returnManyWithNames() public pure returns(uint x, bool b){... */\n    tag_6:\n      tag_16\n      tag_17\n      jump\t// in\n    tag_16:\n      mload(0x40)\n      tag_18\n      swap3\n      swap2\n      swap1\n      tag_12\n      jump\t// in\n    tag_18:\n      mload(0x40)\n      dup1\n      swap2\n      sub\n      swap1\n      return\n        /* \"FuncOutputs.sol\":400:531  function destructReturnFuncs() public pure {... */\n    tag_8:\n        /* \"FuncOutputs.sol\":454:460  uint x */\n      0x00\n        /* \"FuncOutputs.sol\":462:468  bool b */\n      dup1\n        /* \"FuncOutputs.sol\":472:484  returnMany() */\n      tag_20\n        /* \"FuncOutputs.sol\":472:482  returnMany */\n      tag_10\n        /* \"FuncOutputs.sol\":472:484  returnMany() */\n      jump\t// in\n    tag_20:\n        /* \"FuncOutputs.sol\":453:484  (uint x, bool b) = returnMany() */\n      swap2\n      pop\n      swap2\n      pop\n        /* \"FuncOutputs.sol\":497:507  bool onlyB */\n      0x00\n        /* \"FuncOutputs.sol\":511:523  returnMany() */\n      tag_21\n        /* \"FuncOutputs.sol\":511:521  returnMany */\n      tag_10\n        /* \"FuncOutputs.sol\":511:523  returnMany() */\n      jump\t// in\n    tag_21:\n        /* \"FuncOutputs.sol\":494:523  (, bool onlyB) = returnMany() */\n      swap2\n      pop\n      pop\n        /* \"FuncOutputs.sol\":443:531  {... */\n      pop\n      pop\n      pop\n        /* \"FuncOutputs.sol\":400:531  function destructReturnFuncs() public pure {... */\n      jump\t// out\n        /* \"FuncOutputs.sol\":86:175  function returnMany() public pure returns(uint, bool){... */\n    tag_10:\n        /* \"FuncOutputs.sol\":128:132  uint */\n      0x00\n        /* \"FuncOutputs.sol\":134:138  bool */\n      dup1\n        /* \"FuncOutputs.sol\":158:159  1 */\n      0x01\n        /* \"FuncOutputs.sol\":161:166  false */\n      0x00\n        /* \"FuncOutputs.sol\":150:167  return (1, false) */\n      swap2\n      pop\n      swap2\n      pop\n        /* \"FuncOutputs.sol\":86:175  function returnMany() public pure returns(uint, bool){... */\n      swap1\n      swap2\n      jump\t// out\n        /* \"FuncOutputs.sol\":294:392  function assigned() public pure returns(uint x, bool b){... */\n    tag_14:\n        /* \"FuncOutputs.sol\":334:340  uint x */\n      0x00\n        /* \"FuncOutputs.sol\":342:348  bool b */\n      dup1\n        /* \"FuncOutputs.sol\":364:365  1 */\n      0x01\n        /* \"FuncOutputs.sol\":360:365  x = 1 */\n      swap2\n      pop\n        /* \"FuncOutputs.sol\":380:384  true */\n      0x01\n        /* \"FuncOutputs.sol\":376:384  b = true */\n      swap1\n      pop\n        /* \"FuncOutputs.sol\":294:392  function assigned() public pure returns(uint x, bool b){... */\n      swap1\n      swap2\n      jump\t// out\n        /* \"FuncOutputs.sol\":183:285  function returnManyWithNames() public pure returns(uint x, bool b){... */\n    tag_17:\n        /* \"FuncOutputs.sol\":234:240  uint x */\n      0x00\n        /* \"FuncOutputs.sol\":242:248  bool b */\n      dup1\n        /* \"FuncOutputs.sol\":268:269  1 */\n      0x01\n        /* \"FuncOutputs.sol\":271:276  false */\n      0x00\n        /* \"FuncOutputs.sol\":260:277  return (1, false) */\n      swap2\n      pop\n      swap2\n      pop\n        /* \"FuncOutputs.sol\":183:285  function returnManyWithNames() public pure returns(uint x, bool b){... */\n      swap1\n      swap2\n      jump\t// out\n        /* \"#utility.yul\":7:84   */\n    tag_25:\n        /* \"#utility.yul\":44:51   */\n      0x00\n        /* \"#utility.yul\":73:78   */\n      dup2\n        /* \"#utility.yul\":62:78   */\n      swap1\n      pop\n        /* \"#utility.yul\":7:84   */\n      swap2\n      swap1\n      pop\n      jump\t// out\n        /* \"#utility.yul\":90:208   */\n    tag_26:\n        /* \"#utility.yul\":177:201   */\n      tag_32\n        /* \"#utility.yul\":195:200   */\n      dup2\n        /* \"#utility.yul\":177:201   */\n      tag_25\n      jump\t// in\n    tag_32:\n        /* \"#utility.yul\":172:175   */\n      dup3\n        /* \"#utility.yul\":165:202   */\n      mstore\n        /* \"#utility.yul\":90:208   */\n      pop\n      pop\n      jump\t// out\n        /* \"#utility.yul\":214:304   */\n    tag_27:\n        /* \"#utility.yul\":248:255   */\n      0x00\n        /* \"#utility.yul\":291:296   */\n      dup2\n        /* \"#utility.yul\":284:297   */\n      iszero\n        /* \"#utility.yul\":277:298   */\n      iszero\n        /* \"#utility.yul\":266:298   */\n      swap1\n      pop\n        /* \"#utility.yul\":214:304   */\n      swap2\n      swap1\n      pop\n      jump\t// out\n        /* \"#utility.yul\":310:419   */\n    tag_28:\n        /* \"#utility.yul\":391:412   */\n      tag_35\n        /* \"#utility.yul\":406:411   */\n      dup2\n        /* \"#utility.yul\":391:412   */\n      tag_27\n      jump\t// in\n    tag_35:\n        /* \"#utility.yul\":386:389   */\n      dup3\n        /* \"#utility.yul\":379:413   */\n      mstore\n        /* \"#utility.yul\":310:419   */\n      pop\n      pop\n      jump\t// out\n        /* \"#utility.yul\":425:745   */\n    tag_12:\n        /* \"#utility.yul\":540:544   */\n      0x00\n        /* \"#utility.yul\":578:580   */\n      0x40\n        /* \"#utility.yul\":567:576   */\n      dup3\n        /* \"#utility.yul\":563:581   */\n      add\n        /* \"#utility.yul\":555:581   */\n      swap1\n      pop\n        /* \"#utility.yul\":591:662   */\n      tag_37\n        /* \"#utility.yul\":659:660   */\n      0x00\n        /* \"#utility.yul\":648:657   */\n      dup4\n        /* \"#utility.yul\":644:661   */\n      add\n        /* \"#utility.yul\":635:641   */\n      dup6\n        /* \"#utility.yul\":591:662   */\n      tag_26\n      jump\t// in\n    tag_37:\n        /* \"#utility.yul\":672:738   */\n      tag_38\n        /* \"#utility.yul\":734:736   */\n      0x20\n        /* \"#utility.yul\":723:732   */\n      dup4\n        /* \"#utility.yul\":719:737   */\n      add\n        /* \"#utility.yul\":710:716   */\n      dup5\n        /* \"#utility.yul\":672:738   */\n      tag_28\n      jump\t// in\n    tag_38:\n        /* \"#utility.yul\":425:745   */\n      swap4\n      swap3\n      pop\n      pop\n      pop\n      jump\t// out\n\n    auxdata: 0xa26469706673582212200126ccdd6b30c4312ac30c6b4f32b7dad7f545a5404aacf2702c0921e4d944a564736f6c63430008130033\n}\n",
				"bytecode": {
					"linkReferences": {},
					"object": "608060405234801561001057600080fd5b50610199806100206000396000f3fe608060405234801561001057600080fd5b506004361061004c5760003560e01c806342cbcba714610051578063868875441461005b578063adb4d9901461007a578063b5492bce14610099575b600080fd5b6100596100b8565b005b6100636100d9565b60405161007192919061013a565b60405180910390f35b6100826100e8565b60405161009092919061013a565b60405180910390f35b6100a16100f7565b6040516100af92919061013a565b60405180910390f35b6000806100c36100d9565b9150915060006100d16100d9565b915050505050565b60008060016000915091509091565b60008060019150600190509091565b60008060016000915091509091565b6000819050919050565b61011981610106565b82525050565b60008115159050919050565b6101348161011f565b82525050565b600060408201905061014f6000830185610110565b61015c602083018461012b565b939250505056fea26469706673582212200126ccdd6b30c4312ac30c6b4f32b7dad7f545a5404aacf2702c0921e4d944a564736f6c63430008130033",
					"opcodes": "PUSH1 0x80 PUSH1 0x40 MSTORE CALLVALUE DUP1 ISZERO PUSH2 0x10 JUMPI PUSH1 0x0 DUP1 REVERT JUMPDEST POP PUSH2 0x199 DUP1 PUSH2 0x20 PUSH1 0x0 CODECOPY PUSH1 0x0 RETURN INVALID PUSH1 0x80 PUSH1 0x40 MSTORE CALLVALUE DUP1 ISZERO PUSH2 0x10 JUMPI PUSH1 0x0 DUP1 REVERT JUMPDEST POP PUSH1 0x4 CALLDATASIZE LT PUSH2 0x4C JUMPI PUSH1 0x0 CALLDATALOAD PUSH1 0xE0 SHR DUP1 PUSH4 0x42CBCBA7 EQ PUSH2 0x51 JUMPI DUP1 PUSH4 0x86887544 EQ PUSH2 0x5B JUMPI DUP1 PUSH4 0xADB4D990 EQ PUSH2 0x7A JUMPI DUP1 PUSH4 0xB5492BCE EQ PUSH2 0x99 JUMPI JUMPDEST PUSH1 0x0 DUP1 REVERT JUMPDEST PUSH2 0x59 PUSH2 0xB8 JUMP JUMPDEST STOP JUMPDEST PUSH2 0x63 PUSH2 0xD9 JUMP JUMPDEST PUSH1 0x40 MLOAD PUSH2 0x71 SWAP3 SWAP2 SWAP1 PUSH2 0x13A JUMP JUMPDEST PUSH1 0x40 MLOAD DUP1 SWAP2 SUB SWAP1 RETURN JUMPDEST PUSH2 0x82 PUSH2 0xE8 JUMP JUMPDEST PUSH1 0x40 MLOAD PUSH2 0x90 SWAP3 SWAP2 SWAP1 PUSH2 0x13A JUMP JUMPDEST PUSH1 0x40 MLOAD DUP1 SWAP2 SUB SWAP1 RETURN JUMPDEST PUSH2 0xA1 PUSH2 0xF7 JUMP JUMPDEST PUSH1 0x40 MLOAD PUSH2 0xAF SWAP3 SWAP2 SWAP1 PUSH2 0x13A JUMP JUMPDEST PUSH1 0x40 MLOAD DUP1 SWAP2 SUB SWAP1 RETURN JUMPDEST PUSH1 0x0 DUP1 PUSH2 0xC3 PUSH2 0xD9 JUMP JUMPDEST SWAP2 POP SWAP2 POP PUSH1 0x0 PUSH2 0xD1 PUSH2 0xD9 JUMP JUMPDEST SWAP2 POP POP POP POP POP JUMP JUMPDEST PUSH1 0x0 DUP1 PUSH1 0x1 PUSH1 0x0 SWAP2 POP SWAP2 POP SWAP1 SWAP2 JUMP JUMPDEST PUSH1 0x0 DUP1 PUSH1 0x1 SWAP2 POP PUSH1 0x1 SWAP1 POP SWAP1 SWAP2 JUMP JUMPDEST PUSH1 0x0 DUP1 PUSH1 0x1 PUSH1 0x0 SWAP2 POP SWAP2 POP SWAP1 SWAP2 JUMP JUMPDEST PUSH1 0x0 DUP2 SWAP1 POP SWAP2 SWAP1 POP JUMP JUMPDEST PUSH2 0x119 DUP2 PUSH2 0x106 JUMP JUMPDEST DUP3 MSTORE POP POP JUMP JUMPDEST PUSH1 0x0 DUP2 ISZERO ISZERO SWAP1 POP SWAP2 SWAP1 POP JUMP JUMPDEST PUSH2 0x134 DUP2 PUSH2 0x11F JUMP JUMPDEST DUP3 MSTORE POP POP JUMP JUMPDEST PUSH1 0x0 PUSH1 0x40 DUP3 ADD SWAP1 POP PUSH2 0x14F PUSH1 0x0 DUP4 ADD DUP6 PUSH2 0x110 JUMP JUMPDEST PUSH2 0x15C PUSH1 0x20 DUP4 ADD DUP5 PUSH2 0x12B JUMP JUMPDEST SWAP4 SWAP3 POP POP POP JUMP INVALID LOG2 PUSH5 0x6970667358 0x22 SLT KECCAK256 ADD 0x26 0xCC 0xDD PUSH12 0x30C4312AC30C6B4F32B7DAD7 CREATE2 GASLIMIT 0xA5 BLOCKHASH 0x4A 0xAC CALLCODE PUSH17 0x2C0921E4D944A564736F6C634300081300 CALLER "
				},
				"gasEstimates": {
					"creation": {
						"codeDepositCost": "81800",
						"executionCost": "129",
						"totalCost": "81929"
					},
					"external": {
						"assigned()": "479",
						"destructReturnFuncs()": "infinite",
						"returnMany()": "457",
						"returnManyWithNames()": "501"
					}
				},
				"methodIdentifiers": {
					"assigned()": "adb4d990",
					"destructReturnFuncs()": "42cbcba7",
					"returnMany()": "86887544",
					"returnManyWithNames()": "b5492bce"
				}
			},
			"storageLayout": {
				"storage": [],
				"types": null
			},
			"userdoc": {
				"kind": "user",
				"methods": {},
				"version": 1
			}
		}
	}
}