{
	"Array.sol": {
		"Array": {
			"abi": [
				{
					"inputs": [
						{
							"internalType": "uint256",
							"name": "",
							"type": "uint256"
						}
					],
					"name": "nums",
					"outputs": [
						{
							"internalType": "uint256",
							"name": "",
							"type": "uint256"
						}
					],
					"stateMutability": "view",
					"type": "function"
				},
				{
					"inputs": [
						{
							"internalType": "uint256",
							"name": "",
							"type": "uint256"
						}
					],
					"name": "numsFixed",
					"outputs": [
						{
							"internalType": "uint256",
							"name": "",
							"type": "uint256"
						}
					],
					"stateMutability": "view",
					"type": "function"
				},
				{
					"inputs": [
						{
							"internalType": "uint256",
							"name": "_index",
							"type": "uint256"
						}
					],
					"name": "remove",
					"outputs": [],
					"stateMutability": "nonpayable",
					"type": "function"
				},
				{
					"inputs": [],
					"name": "returnArray",
					"outputs": [
						{
							"internalType": "uint256[]",
							"name": "",
							"type": "uint256[]"
						}
					],
					"stateMutability": "view",
					"type": "function"
				},
				{
					"inputs": [
						{
							"internalType": "uint256",
							"name": "_index",
							"type": "uint256"
						}
					],
					"name": "simplerRemove",
					"outputs": [],
					"stateMutability": "nonpayable",
					"type": "function"
				},
				{
					"inputs": [],
					"name": "testRemove",
					"outputs": [],
					"stateMutability": "nonpayable",
					"type": "function"
				},
				{
					"inputs": [],
					"name": "testSimpleRemove",
					"outputs": [],
					"stateMutability": "nonpayable",
					"type": "function"
				}
			],
			"devdoc": {
				"kind": "dev",
				"methods": {},
				"version": 1
			},
			"evm": {
				"assembly": "    /* \"Array.sol\":59:1716  contract Array {... */\n  mstore(0x40, 0x80)\n  callvalue\n  dup1\n  iszero\n  tag_1\n  jumpi\n  0x00\n  dup1\n  revert\ntag_1:\n  pop\n  dataSize(sub_0)\n  dup1\n  dataOffset(sub_0)\n  0x00\n  codecopy\n  0x00\n  return\nstop\n\nsub_0: assembly {\n        /* \"Array.sol\":59:1716  contract Array {... */\n      mstore(0x40, 0x80)\n      callvalue\n      dup1\n      iszero\n      tag_1\n      jumpi\n      0x00\n      dup1\n      revert\n    tag_1:\n      pop\n      jumpi(tag_2, lt(calldatasize, 0x04))\n      shr(0xe0, calldataload(0x00))\n      dup1\n      0x44395769\n      gt\n      tag_10\n      jumpi\n      dup1\n      0x44395769\n      eq\n      tag_6\n      jumpi\n      dup1\n      0x4cc82215\n      eq\n      tag_7\n      jumpi\n      dup1\n      0xa012fb19\n      eq\n      tag_8\n      jumpi\n      dup1\n      0xfd1ee54c\n      eq\n      tag_9\n      jumpi\n      jump(tag_2)\n    tag_10:\n      dup1\n      0x23865a88\n      eq\n      tag_3\n      jumpi\n      dup1\n      0x39cfea4a\n      eq\n      tag_4\n      jumpi\n      dup1\n      0x3cac14c8\n      eq\n      tag_5\n      jumpi\n    tag_2:\n      0x00\n      dup1\n      revert\n        /* \"Array.sol\":1510:1705  function testSimpleRemove() external{... */\n    tag_3:\n      tag_11\n      tag_12\n      jump\t// in\n    tag_11:\n      stop\n        /* \"Array.sol\":1151:1374  function testRemove() external{... */\n    tag_4:\n      tag_13\n      tag_14\n      jump\t// in\n    tag_13:\n      stop\n        /* \"Array.sol\":784:874  function returnArray() external view returns (uint[] memory){... */\n    tag_5:\n      tag_15\n      tag_16\n      jump\t// in\n    tag_15:\n      mload(0x40)\n      tag_17\n      swap2\n      swap1\n      tag_18\n      jump\t// in\n    tag_17:\n      mload(0x40)\n      dup1\n      swap2\n      sub\n      swap1\n      return\n        /* \"Array.sol\":106:131  uint[10] public numsFixed */\n    tag_6:\n      tag_19\n      0x04\n      dup1\n      calldatasize\n      sub\n      dup2\n      add\n      swap1\n      tag_20\n      swap2\n      swap1\n      tag_21\n      jump\t// in\n    tag_20:\n      tag_22\n      jump\t// in\n    tag_19:\n      mload(0x40)\n      tag_23\n      swap2\n      swap1\n      tag_24\n      jump\t// in\n    tag_23:\n      mload(0x40)\n      dup1\n      swap2\n      sub\n      swap1\n      return\n        /* \"Array.sol\":916:1143  function remove(uint _index) public {... */\n    tag_7:\n      tag_25\n      0x04\n      dup1\n      calldatasize\n      sub\n      dup2\n      add\n      swap1\n      tag_26\n      swap2\n      swap1\n      tag_21\n      jump\t// in\n    tag_26:\n      tag_27\n      jump\t// in\n    tag_25:\n      stop\n        /* \"Array.sol\":1382:1502  function simplerRemove(uint _index) public {... */\n    tag_8:\n      tag_28\n      0x04\n      dup1\n      calldatasize\n      sub\n      dup2\n      add\n      swap1\n      tag_29\n      swap2\n      swap1\n      tag_21\n      jump\t// in\n    tag_29:\n      tag_30\n      jump\t// in\n    tag_28:\n      stop\n        /* \"Array.sol\":81:99  uint[] public nums */\n    tag_9:\n      tag_31\n      0x04\n      dup1\n      calldatasize\n      sub\n      dup2\n      add\n      swap1\n      tag_32\n      swap2\n      swap1\n      tag_21\n      jump\t// in\n    tag_32:\n      tag_33\n      jump\t// in\n    tag_31:\n      mload(0x40)\n      tag_34\n      swap2\n      swap1\n      tag_24\n      jump\t// in\n    tag_34:\n      mload(0x40)\n      dup1\n      swap2\n      sub\n      swap1\n      return\n        /* \"Array.sol\":1510:1705  function testSimpleRemove() external{... */\n    tag_12:\n        /* \"Array.sol\":1557:1571  nums = [1,2,3] */\n      mload(0x40)\n      dup1\n      0x60\n      add\n      0x40\n      mstore\n      dup1\n        /* \"Array.sol\":1565:1566  1 */\n      0x01\n        /* \"Array.sol\":1557:1571  nums = [1,2,3] */\n      0xff\n      and\n      dup2\n      mstore\n      0x20\n      add\n        /* \"Array.sol\":1567:1568  2 */\n      0x02\n        /* \"Array.sol\":1557:1571  nums = [1,2,3] */\n      0xff\n      and\n      dup2\n      mstore\n      0x20\n      add\n        /* \"Array.sol\":1569:1570  3 */\n      0x03\n        /* \"Array.sol\":1557:1571  nums = [1,2,3] */\n      0xff\n      and\n      dup2\n      mstore\n      pop\n        /* \"Array.sol\":1557:1561  nums */\n      0x00\n        /* \"Array.sol\":1557:1571  nums = [1,2,3] */\n      swap1\n      0x03\n      tag_36\n      swap3\n      swap2\n      swap1\n      tag_37\n      jump\t// in\n    tag_36:\n      pop\n        /* \"Array.sol\":1582:1598  simplerRemove(2) */\n      tag_38\n        /* \"Array.sol\":1596:1597  2 */\n      0x02\n        /* \"Array.sol\":1582:1595  simplerRemove */\n      tag_30\n        /* \"Array.sol\":1582:1598  simplerRemove(2) */\n      jump\t// in\n    tag_38:\n        /* \"Array.sol\":1633:1634  2 */\n      0x02\n        /* \"Array.sol\":1618:1622  nums */\n      0x00\n        /* \"Array.sol\":1618:1629  nums.length */\n      dup1\n      sload\n      swap1\n      pop\n        /* \"Array.sol\":1618:1634  nums.length == 2 */\n      eq\n        /* \"Array.sol\":1611:1635  assert(nums.length == 2) */\n      tag_39\n      jumpi\n      tag_40\n      tag_41\n      jump\t// in\n    tag_40:\n    tag_39:\n        /* \"Array.sol\":1664:1665  1 */\n      0x01\n        /* \"Array.sol\":1653:1657  nums */\n      0x00\n        /* \"Array.sol\":1658:1659  0 */\n      dup1\n        /* \"Array.sol\":1653:1660  nums[0] */\n      dup2\n      sload\n      dup2\n      lt\n      tag_42\n      jumpi\n      tag_43\n      tag_44\n      jump\t// in\n    tag_43:\n    tag_42:\n      swap1\n      0x00\n      mstore\n      keccak256(0x00, 0x20)\n      add\n      sload\n        /* \"Array.sol\":1653:1665  nums[0] == 1 */\n      eq\n        /* \"Array.sol\":1646:1666  assert(nums[0] == 1) */\n      tag_46\n      jumpi\n      tag_47\n      tag_41\n      jump\t// in\n    tag_47:\n    tag_46:\n        /* \"Array.sol\":1695:1696  2 */\n      0x02\n        /* \"Array.sol\":1684:1688  nums */\n      0x00\n        /* \"Array.sol\":1689:1690  1 */\n      0x01\n        /* \"Array.sol\":1684:1691  nums[1] */\n      dup2\n      sload\n      dup2\n      lt\n      tag_48\n      jumpi\n      tag_49\n      tag_44\n      jump\t// in\n    tag_49:\n    tag_48:\n      swap1\n      0x00\n      mstore\n      keccak256(0x00, 0x20)\n      add\n      sload\n        /* \"Array.sol\":1684:1696  nums[1] == 2 */\n      eq\n        /* \"Array.sol\":1677:1697  assert(nums[1] == 2) */\n      tag_51\n      jumpi\n      tag_52\n      tag_41\n      jump\t// in\n    tag_52:\n    tag_51:\n        /* \"Array.sol\":1510:1705  function testSimpleRemove() external{... */\n      jump\t// out\n        /* \"Array.sol\":1151:1374  function testRemove() external{... */\n    tag_14:\n        /* \"Array.sol\":1192:1208  nums = [1,2,3,4] */\n      mload(0x40)\n      dup1\n      0x80\n      add\n      0x40\n      mstore\n      dup1\n        /* \"Array.sol\":1200:1201  1 */\n      0x01\n        /* \"Array.sol\":1192:1208  nums = [1,2,3,4] */\n      0xff\n      and\n      dup2\n      mstore\n      0x20\n      add\n        /* \"Array.sol\":1202:1203  2 */\n      0x02\n        /* \"Array.sol\":1192:1208  nums = [1,2,3,4] */\n      0xff\n      and\n      dup2\n      mstore\n      0x20\n      add\n        /* \"Array.sol\":1204:1205  3 */\n      0x03\n        /* \"Array.sol\":1192:1208  nums = [1,2,3,4] */\n      0xff\n      and\n      dup2\n      mstore\n      0x20\n      add\n        /* \"Array.sol\":1206:1207  4 */\n      0x04\n        /* \"Array.sol\":1192:1208  nums = [1,2,3,4] */\n      0xff\n      and\n      dup2\n      mstore\n      pop\n        /* \"Array.sol\":1192:1196  nums */\n      0x00\n        /* \"Array.sol\":1192:1208  nums = [1,2,3,4] */\n      swap1\n      0x04\n      tag_54\n      swap3\n      swap2\n      swap1\n      tag_55\n      jump\t// in\n    tag_54:\n      pop\n        /* \"Array.sol\":1219:1228  remove(2) */\n      tag_56\n        /* \"Array.sol\":1226:1227  2 */\n      0x02\n        /* \"Array.sol\":1219:1225  remove */\n      tag_27\n        /* \"Array.sol\":1219:1228  remove(2) */\n      jump\t// in\n    tag_56:\n        /* \"Array.sol\":1267:1268  1 */\n      0x01\n        /* \"Array.sol\":1256:1260  nums */\n      0x00\n        /* \"Array.sol\":1261:1262  0 */\n      dup1\n        /* \"Array.sol\":1256:1263  nums[0] */\n      dup2\n      sload\n      dup2\n      lt\n      tag_57\n      jumpi\n      tag_58\n      tag_44\n      jump\t// in\n    tag_58:\n    tag_57:\n      swap1\n      0x00\n      mstore\n      keccak256(0x00, 0x20)\n      add\n      sload\n        /* \"Array.sol\":1256:1268  nums[0] == 1 */\n      eq\n        /* \"Array.sol\":1249:1269  assert(nums[0] == 1) */\n      tag_60\n      jumpi\n      tag_61\n      tag_41\n      jump\t// in\n    tag_61:\n    tag_60:\n        /* \"Array.sol\":1298:1299  2 */\n      0x02\n        /* \"Array.sol\":1287:1291  nums */\n      0x00\n        /* \"Array.sol\":1292:1293  1 */\n      0x01\n        /* \"Array.sol\":1287:1294  nums[1] */\n      dup2\n      sload\n      dup2\n      lt\n      tag_62\n      jumpi\n      tag_63\n      tag_44\n      jump\t// in\n    tag_63:\n    tag_62:\n      swap1\n      0x00\n      mstore\n      keccak256(0x00, 0x20)\n      add\n      sload\n        /* \"Array.sol\":1287:1299  nums[1] == 2 */\n      eq\n        /* \"Array.sol\":1280:1300  assert(nums[1] == 2) */\n      tag_65\n      jumpi\n      tag_66\n      tag_41\n      jump\t// in\n    tag_66:\n    tag_65:\n        /* \"Array.sol\":1329:1330  4 */\n      0x04\n        /* \"Array.sol\":1318:1322  nums */\n      0x00\n        /* \"Array.sol\":1323:1324  2 */\n      0x02\n        /* \"Array.sol\":1318:1325  nums[2] */\n      dup2\n      sload\n      dup2\n      lt\n      tag_67\n      jumpi\n      tag_68\n      tag_44\n      jump\t// in\n    tag_68:\n    tag_67:\n      swap1\n      0x00\n      mstore\n      keccak256(0x00, 0x20)\n      add\n      sload\n        /* \"Array.sol\":1318:1330  nums[2] == 4 */\n      eq\n        /* \"Array.sol\":1311:1331  assert(nums[2] == 4) */\n      tag_70\n      jumpi\n      tag_71\n      tag_41\n      jump\t// in\n    tag_71:\n    tag_70:\n        /* \"Array.sol\":1364:1365  3 */\n      0x03\n        /* \"Array.sol\":1349:1353  nums */\n      0x00\n        /* \"Array.sol\":1349:1360  nums.length */\n      dup1\n      sload\n      swap1\n      pop\n        /* \"Array.sol\":1349:1365  nums.length == 3 */\n      eq\n        /* \"Array.sol\":1342:1366  assert(nums.length == 3) */\n      tag_72\n      jumpi\n      tag_73\n      tag_41\n      jump\t// in\n    tag_73:\n    tag_72:\n        /* \"Array.sol\":1151:1374  function testRemove() external{... */\n      jump\t// out\n        /* \"Array.sol\":784:874  function returnArray() external view returns (uint[] memory){... */\n    tag_16:\n        /* \"Array.sol\":830:843  uint[] memory */\n      0x60\n        /* \"Array.sol\":862:866  nums */\n      0x00\n        /* \"Array.sol\":855:866  return nums */\n      dup1\n      sload\n      dup1\n      0x20\n      mul\n      0x20\n      add\n      mload(0x40)\n      swap1\n      dup2\n      add\n      0x40\n      mstore\n      dup1\n      swap3\n      swap2\n      swap1\n      dup2\n      dup2\n      mstore\n      0x20\n      add\n      dup3\n      dup1\n      sload\n      dup1\n      iszero\n      tag_75\n      jumpi\n      0x20\n      mul\n      dup3\n      add\n      swap2\n      swap1\n      0x00\n      mstore\n      keccak256(0x00, 0x20)\n      swap1\n    tag_76:\n      dup2\n      sload\n      dup2\n      mstore\n      0x20\n      add\n      swap1\n      0x01\n      add\n      swap1\n      dup1\n      dup4\n      gt\n      tag_76\n      jumpi\n    tag_75:\n      pop\n      pop\n      pop\n      pop\n      pop\n      swap1\n      pop\n        /* \"Array.sol\":784:874  function returnArray() external view returns (uint[] memory){... */\n      swap1\n      jump\t// out\n        /* \"Array.sol\":106:131  uint[10] public numsFixed */\n    tag_22:\n      0x01\n      dup2\n      0x0a\n      dup2\n      lt\n      tag_77\n      jumpi\n      0x00\n      dup1\n      revert\n    tag_77:\n      add\n      0x00\n      swap2\n      pop\n      swap1\n      pop\n      sload\n      dup2\n      jump\t// out\n        /* \"Array.sol\":916:1143  function remove(uint _index) public {... */\n    tag_27:\n        /* \"Array.sol\":980:984  nums */\n      0x00\n        /* \"Array.sol\":980:991  nums.length */\n      dup1\n      sload\n      swap1\n      pop\n        /* \"Array.sol\":971:977  _index */\n      dup2\n        /* \"Array.sol\":971:991  _index < nums.length */\n      lt\n        /* \"Array.sol\":963:1008  require(_index < nums.length, \"Out of bound\") */\n      tag_80\n      jumpi\n      mload(0x40)\n      0x08c379a000000000000000000000000000000000000000000000000000000000\n      dup2\n      mstore\n      0x04\n      add\n      tag_81\n      swap1\n      tag_82\n      jump\t// in\n    tag_81:\n      mload(0x40)\n      dup1\n      swap2\n      sub\n      swap1\n      revert\n    tag_80:\n        /* \"Array.sol\":1025:1031  uint i */\n      0x00\n        /* \"Array.sol\":1034:1040  _index */\n      dup2\n        /* \"Array.sol\":1025:1040  uint i = _index */\n      swap1\n      pop\n        /* \"Array.sol\":1021:1115  for(uint i = _index; i < nums.length - 1; i++){... */\n    tag_83:\n        /* \"Array.sol\":1060:1061  1 */\n      0x01\n        /* \"Array.sol\":1046:1050  nums */\n      0x00\n        /* \"Array.sol\":1046:1057  nums.length */\n      dup1\n      sload\n      swap1\n      pop\n        /* \"Array.sol\":1046:1061  nums.length - 1 */\n      tag_86\n      swap2\n      swap1\n      tag_87\n      jump\t// in\n    tag_86:\n        /* \"Array.sol\":1042:1043  i */\n      dup2\n        /* \"Array.sol\":1042:1061  i < nums.length - 1 */\n      lt\n        /* \"Array.sol\":1021:1115  for(uint i = _index; i < nums.length - 1; i++){... */\n      iszero\n      tag_84\n      jumpi\n        /* \"Array.sol\":1092:1096  nums */\n      0x00\n        /* \"Array.sol\":1101:1102  1 */\n      0x01\n        /* \"Array.sol\":1097:1098  i */\n      dup3\n        /* \"Array.sol\":1097:1102  i + 1 */\n      tag_88\n      swap2\n      swap1\n      tag_89\n      jump\t// in\n    tag_88:\n        /* \"Array.sol\":1092:1103  nums[i + 1] */\n      dup2\n      sload\n      dup2\n      lt\n      tag_90\n      jumpi\n      tag_91\n      tag_44\n      jump\t// in\n    tag_91:\n    tag_90:\n      swap1\n      0x00\n      mstore\n      keccak256(0x00, 0x20)\n      add\n      sload\n        /* \"Array.sol\":1082:1086  nums */\n      0x00\n        /* \"Array.sol\":1087:1088  i */\n      dup3\n        /* \"Array.sol\":1082:1089  nums[i] */\n      dup2\n      sload\n      dup2\n      lt\n      tag_93\n      jumpi\n      tag_94\n      tag_44\n      jump\t// in\n    tag_94:\n    tag_93:\n      swap1\n      0x00\n      mstore\n      keccak256(0x00, 0x20)\n      add\n        /* \"Array.sol\":1082:1103  nums[i] = nums[i + 1] */\n      dup2\n      swap1\n      sstore\n      pop\n        /* \"Array.sol\":1063:1066  i++ */\n      dup1\n      dup1\n      tag_96\n      swap1\n      tag_97\n      jump\t// in\n    tag_96:\n      swap2\n      pop\n      pop\n        /* \"Array.sol\":1021:1115  for(uint i = _index; i < nums.length - 1; i++){... */\n      jump(tag_83)\n    tag_84:\n      pop\n        /* \"Array.sol\":1125:1129  nums */\n      0x00\n        /* \"Array.sol\":1125:1135  nums.pop() */\n      dup1\n      sload\n      dup1\n      tag_98\n      jumpi\n      tag_99\n      tag_100\n      jump\t// in\n    tag_99:\n    tag_98:\n      0x01\n      swap1\n      sub\n      dup2\n      dup2\n      swap1\n      0x00\n      mstore\n      keccak256(0x00, 0x20)\n      add\n      0x00\n      swap1\n      sstore\n      swap1\n      sstore\n        /* \"Array.sol\":916:1143  function remove(uint _index) public {... */\n      pop\n      jump\t// out\n        /* \"Array.sol\":1382:1502  function simplerRemove(uint _index) public {... */\n    tag_30:\n        /* \"Array.sol\":1451:1455  nums */\n      0x00\n        /* \"Array.sol\":1470:1471  1 */\n      0x01\n        /* \"Array.sol\":1456:1460  nums */\n      0x00\n        /* \"Array.sol\":1456:1467  nums.length */\n      dup1\n      sload\n      swap1\n      pop\n        /* \"Array.sol\":1456:1471  nums.length - 1 */\n      tag_103\n      swap2\n      swap1\n      tag_87\n      jump\t// in\n    tag_103:\n        /* \"Array.sol\":1451:1472  nums[nums.length - 1] */\n      dup2\n      sload\n      dup2\n      lt\n      tag_104\n      jumpi\n      tag_105\n      tag_44\n      jump\t// in\n    tag_105:\n    tag_104:\n      swap1\n      0x00\n      mstore\n      keccak256(0x00, 0x20)\n      add\n      sload\n        /* \"Array.sol\":1436:1440  nums */\n      0x00\n        /* \"Array.sol\":1441:1447  _index */\n      dup3\n        /* \"Array.sol\":1436:1448  nums[_index] */\n      dup2\n      sload\n      dup2\n      lt\n      tag_107\n      jumpi\n      tag_108\n      tag_44\n      jump\t// in\n    tag_108:\n    tag_107:\n      swap1\n      0x00\n      mstore\n      keccak256(0x00, 0x20)\n      add\n        /* \"Array.sol\":1436:1472  nums[_index] = nums[nums.length - 1] */\n      dup2\n      swap1\n      sstore\n      pop\n        /* \"Array.sol\":1483:1487  nums */\n      0x00\n        /* \"Array.sol\":1483:1493  nums.pop() */\n      dup1\n      sload\n      dup1\n      tag_110\n      jumpi\n      tag_111\n      tag_100\n      jump\t// in\n    tag_111:\n    tag_110:\n      0x01\n      swap1\n      sub\n      dup2\n      dup2\n      swap1\n      0x00\n      mstore\n      keccak256(0x00, 0x20)\n      add\n      0x00\n      swap1\n      sstore\n      swap1\n      sstore\n        /* \"Array.sol\":1382:1502  function simplerRemove(uint _index) public {... */\n      pop\n      jump\t// out\n        /* \"Array.sol\":81:99  uint[] public nums */\n    tag_33:\n      0x00\n      dup2\n      dup2\n      sload\n      dup2\n      lt\n      tag_113\n      jumpi\n      0x00\n      dup1\n      revert\n    tag_113:\n      swap1\n      0x00\n      mstore\n      keccak256(0x00, 0x20)\n      add\n      0x00\n      swap2\n      pop\n      swap1\n      pop\n      sload\n      dup2\n      jump\t// out\n    tag_37:\n      dup3\n      dup1\n      sload\n      dup3\n      dup3\n      sstore\n      swap1\n      0x00\n      mstore\n      keccak256(0x00, 0x20)\n      swap1\n      dup2\n      add\n      swap3\n      dup3\n      iszero\n      tag_115\n      jumpi\n      swap2\n      0x20\n      mul\n      dup3\n      add\n    tag_116:\n      dup3\n      dup2\n      gt\n      iszero\n      tag_117\n      jumpi\n      dup3\n      mload\n      dup3\n      swap1\n      0xff\n      and\n      swap1\n      sstore\n      swap2\n      0x20\n      add\n      swap2\n      swap1\n      0x01\n      add\n      swap1\n      jump(tag_116)\n    tag_117:\n    tag_115:\n      pop\n      swap1\n      pop\n      tag_118\n      swap2\n      swap1\n      tag_119\n      jump\t// in\n    tag_118:\n      pop\n      swap1\n      jump\t// out\n    tag_55:\n      dup3\n      dup1\n      sload\n      dup3\n      dup3\n      sstore\n      swap1\n      0x00\n      mstore\n      keccak256(0x00, 0x20)\n      swap1\n      dup2\n      add\n      swap3\n      dup3\n      iszero\n      tag_120\n      jumpi\n      swap2\n      0x20\n      mul\n      dup3\n      add\n    tag_121:\n      dup3\n      dup2\n      gt\n      iszero\n      tag_122\n      jumpi\n      dup3\n      mload\n      dup3\n      swap1\n      0xff\n      and\n      swap1\n      sstore\n      swap2\n      0x20\n      add\n      swap2\n      swap1\n      0x01\n      add\n      swap1\n      jump(tag_121)\n    tag_122:\n    tag_120:\n      pop\n      swap1\n      pop\n      tag_123\n      swap2\n      swap1\n      tag_119\n      jump\t// in\n    tag_123:\n      pop\n      swap1\n      jump\t// out\n    tag_119:\n    tag_124:\n      dup1\n      dup3\n      gt\n      iszero\n      tag_125\n      jumpi\n      0x00\n      dup2\n      0x00\n      swap1\n      sstore\n      pop\n      0x01\n      add\n      jump(tag_124)\n    tag_125:\n      pop\n      swap1\n      jump\t// out\n        /* \"#utility.yul\":7:121   */\n    tag_126:\n        /* \"#utility.yul\":74:80   */\n      0x00\n        /* \"#utility.yul\":108:113   */\n      dup2\n        /* \"#utility.yul\":102:114   */\n      mload\n        /* \"#utility.yul\":92:114   */\n      swap1\n      pop\n        /* \"#utility.yul\":7:121   */\n      swap2\n      swap1\n      pop\n      jump\t// out\n        /* \"#utility.yul\":127:311   */\n    tag_127:\n        /* \"#utility.yul\":226:237   */\n      0x00\n        /* \"#utility.yul\":260:266   */\n      dup3\n        /* \"#utility.yul\":255:258   */\n      dup3\n        /* \"#utility.yul\":248:267   */\n      mstore\n        /* \"#utility.yul\":300:304   */\n      0x20\n        /* \"#utility.yul\":295:298   */\n      dup3\n        /* \"#utility.yul\":291:305   */\n      add\n        /* \"#utility.yul\":276:305   */\n      swap1\n      pop\n        /* \"#utility.yul\":127:311   */\n      swap3\n      swap2\n      pop\n      pop\n      jump\t// out\n        /* \"#utility.yul\":317:449   */\n    tag_128:\n        /* \"#utility.yul\":384:388   */\n      0x00\n        /* \"#utility.yul\":407:410   */\n      dup2\n        /* \"#utility.yul\":399:410   */\n      swap1\n      pop\n        /* \"#utility.yul\":437:441   */\n      0x20\n        /* \"#utility.yul\":432:435   */\n      dup3\n        /* \"#utility.yul\":428:442   */\n      add\n        /* \"#utility.yul\":420:442   */\n      swap1\n      pop\n        /* \"#utility.yul\":317:449   */\n      swap2\n      swap1\n      pop\n      jump\t// out\n        /* \"#utility.yul\":455:532   */\n    tag_129:\n        /* \"#utility.yul\":492:499   */\n      0x00\n        /* \"#utility.yul\":521:526   */\n      dup2\n        /* \"#utility.yul\":510:526   */\n      swap1\n      pop\n        /* \"#utility.yul\":455:532   */\n      swap2\n      swap1\n      pop\n      jump\t// out\n        /* \"#utility.yul\":538:646   */\n    tag_130:\n        /* \"#utility.yul\":615:639   */\n      tag_150\n        /* \"#utility.yul\":633:638   */\n      dup2\n        /* \"#utility.yul\":615:639   */\n      tag_129\n      jump\t// in\n    tag_150:\n        /* \"#utility.yul\":610:613   */\n      dup3\n        /* \"#utility.yul\":603:640   */\n      mstore\n        /* \"#utility.yul\":538:646   */\n      pop\n      pop\n      jump\t// out\n        /* \"#utility.yul\":652:831   */\n    tag_131:\n        /* \"#utility.yul\":721:731   */\n      0x00\n        /* \"#utility.yul\":742:788   */\n      tag_152\n        /* \"#utility.yul\":784:787   */\n      dup4\n        /* \"#utility.yul\":776:782   */\n      dup4\n        /* \"#utility.yul\":742:788   */\n      tag_130\n      jump\t// in\n    tag_152:\n        /* \"#utility.yul\":820:824   */\n      0x20\n        /* \"#utility.yul\":815:818   */\n      dup4\n        /* \"#utility.yul\":811:825   */\n      add\n        /* \"#utility.yul\":797:825   */\n      swap1\n      pop\n        /* \"#utility.yul\":652:831   */\n      swap3\n      swap2\n      pop\n      pop\n      jump\t// out\n        /* \"#utility.yul\":837:950   */\n    tag_132:\n        /* \"#utility.yul\":907:911   */\n      0x00\n        /* \"#utility.yul\":939:943   */\n      0x20\n        /* \"#utility.yul\":934:937   */\n      dup3\n        /* \"#utility.yul\":930:944   */\n      add\n        /* \"#utility.yul\":922:944   */\n      swap1\n      pop\n        /* \"#utility.yul\":837:950   */\n      swap2\n      swap1\n      pop\n      jump\t// out\n        /* \"#utility.yul\":986:1718   */\n    tag_133:\n        /* \"#utility.yul\":1105:1108   */\n      0x00\n        /* \"#utility.yul\":1134:1188   */\n      tag_155\n        /* \"#utility.yul\":1182:1187   */\n      dup3\n        /* \"#utility.yul\":1134:1188   */\n      tag_126\n      jump\t// in\n    tag_155:\n        /* \"#utility.yul\":1204:1290   */\n      tag_156\n        /* \"#utility.yul\":1283:1289   */\n      dup2\n        /* \"#utility.yul\":1278:1281   */\n      dup6\n        /* \"#utility.yul\":1204:1290   */\n      tag_127\n      jump\t// in\n    tag_156:\n        /* \"#utility.yul\":1197:1290   */\n      swap4\n      pop\n        /* \"#utility.yul\":1314:1370   */\n      tag_157\n        /* \"#utility.yul\":1364:1369   */\n      dup4\n        /* \"#utility.yul\":1314:1370   */\n      tag_128\n      jump\t// in\n    tag_157:\n        /* \"#utility.yul\":1393:1400   */\n      dup1\n        /* \"#utility.yul\":1424:1425   */\n      0x00\n        /* \"#utility.yul\":1409:1693   */\n    tag_158:\n        /* \"#utility.yul\":1434:1440   */\n      dup4\n        /* \"#utility.yul\":1431:1432   */\n      dup2\n        /* \"#utility.yul\":1428:1441   */\n      lt\n        /* \"#utility.yul\":1409:1693   */\n      iszero\n      tag_160\n      jumpi\n        /* \"#utility.yul\":1510:1516   */\n      dup2\n        /* \"#utility.yul\":1504:1517   */\n      mload\n        /* \"#utility.yul\":1537:1600   */\n      tag_161\n        /* \"#utility.yul\":1596:1599   */\n      dup9\n        /* \"#utility.yul\":1581:1594   */\n      dup3\n        /* \"#utility.yul\":1537:1600   */\n      tag_131\n      jump\t// in\n    tag_161:\n        /* \"#utility.yul\":1530:1600   */\n      swap8\n      pop\n        /* \"#utility.yul\":1623:1683   */\n      tag_162\n        /* \"#utility.yul\":1676:1682   */\n      dup4\n        /* \"#utility.yul\":1623:1683   */\n      tag_132\n      jump\t// in\n    tag_162:\n        /* \"#utility.yul\":1613:1683   */\n      swap3\n      pop\n        /* \"#utility.yul\":1469:1693   */\n      pop\n        /* \"#utility.yul\":1456:1457   */\n      0x01\n        /* \"#utility.yul\":1453:1454   */\n      dup2\n        /* \"#utility.yul\":1449:1458   */\n      add\n        /* \"#utility.yul\":1444:1458   */\n      swap1\n      pop\n        /* \"#utility.yul\":1409:1693   */\n      jump(tag_158)\n    tag_160:\n        /* \"#utility.yul\":1413:1427   */\n      pop\n        /* \"#utility.yul\":1709:1712   */\n      dup6\n        /* \"#utility.yul\":1702:1712   */\n      swap4\n      pop\n        /* \"#utility.yul\":1110:1718   */\n      pop\n      pop\n      pop\n        /* \"#utility.yul\":986:1718   */\n      swap3\n      swap2\n      pop\n      pop\n      jump\t// out\n        /* \"#utility.yul\":1724:2097   */\n    tag_18:\n        /* \"#utility.yul\":1867:1871   */\n      0x00\n        /* \"#utility.yul\":1905:1907   */\n      0x20\n        /* \"#utility.yul\":1894:1903   */\n      dup3\n        /* \"#utility.yul\":1890:1908   */\n      add\n        /* \"#utility.yul\":1882:1908   */\n      swap1\n      pop\n        /* \"#utility.yul\":1954:1963   */\n      dup2\n        /* \"#utility.yul\":1948:1952   */\n      dup2\n        /* \"#utility.yul\":1944:1964   */\n      sub\n        /* \"#utility.yul\":1940:1941   */\n      0x00\n        /* \"#utility.yul\":1929:1938   */\n      dup4\n        /* \"#utility.yul\":1925:1942   */\n      add\n        /* \"#utility.yul\":1918:1965   */\n      mstore\n        /* \"#utility.yul\":1982:2090   */\n      tag_164\n        /* \"#utility.yul\":2085:2089   */\n      dup2\n        /* \"#utility.yul\":2076:2082   */\n      dup5\n        /* \"#utility.yul\":1982:2090   */\n      tag_133\n      jump\t// in\n    tag_164:\n        /* \"#utility.yul\":1974:2090   */\n      swap1\n      pop\n        /* \"#utility.yul\":1724:2097   */\n      swap3\n      swap2\n      pop\n      pop\n      jump\t// out\n        /* \"#utility.yul\":2184:2301   */\n    tag_135:\n        /* \"#utility.yul\":2293:2294   */\n      0x00\n        /* \"#utility.yul\":2290:2291   */\n      dup1\n        /* \"#utility.yul\":2283:2295   */\n      revert\n        /* \"#utility.yul\":2430:2552   */\n    tag_137:\n        /* \"#utility.yul\":2503:2527   */\n      tag_169\n        /* \"#utility.yul\":2521:2526   */\n      dup2\n        /* \"#utility.yul\":2503:2527   */\n      tag_129\n      jump\t// in\n    tag_169:\n        /* \"#utility.yul\":2496:2501   */\n      dup2\n        /* \"#utility.yul\":2493:2528   */\n      eq\n        /* \"#utility.yul\":2483:2546   */\n      tag_170\n      jumpi\n        /* \"#utility.yul\":2542:2543   */\n      0x00\n        /* \"#utility.yul\":2539:2540   */\n      dup1\n        /* \"#utility.yul\":2532:2544   */\n      revert\n        /* \"#utility.yul\":2483:2546   */\n    tag_170:\n        /* \"#utility.yul\":2430:2552   */\n      pop\n      jump\t// out\n        /* \"#utility.yul\":2558:2697   */\n    tag_138:\n        /* \"#utility.yul\":2604:2609   */\n      0x00\n        /* \"#utility.yul\":2642:2648   */\n      dup2\n        /* \"#utility.yul\":2629:2649   */\n      calldataload\n        /* \"#utility.yul\":2620:2649   */\n      swap1\n      pop\n        /* \"#utility.yul\":2658:2691   */\n      tag_172\n        /* \"#utility.yul\":2685:2690   */\n      dup2\n        /* \"#utility.yul\":2658:2691   */\n      tag_137\n      jump\t// in\n    tag_172:\n        /* \"#utility.yul\":2558:2697   */\n      swap3\n      swap2\n      pop\n      pop\n      jump\t// out\n        /* \"#utility.yul\":2703:3032   */\n    tag_21:\n        /* \"#utility.yul\":2762:2768   */\n      0x00\n        /* \"#utility.yul\":2811:2813   */\n      0x20\n        /* \"#utility.yul\":2799:2808   */\n      dup3\n        /* \"#utility.yul\":2790:2797   */\n      dup5\n        /* \"#utility.yul\":2786:2809   */\n      sub\n        /* \"#utility.yul\":2782:2814   */\n      slt\n        /* \"#utility.yul\":2779:2898   */\n      iszero\n      tag_174\n      jumpi\n        /* \"#utility.yul\":2817:2896   */\n      tag_175\n      tag_135\n      jump\t// in\n    tag_175:\n        /* \"#utility.yul\":2779:2898   */\n    tag_174:\n        /* \"#utility.yul\":2937:2938   */\n      0x00\n        /* \"#utility.yul\":2962:3015   */\n      tag_176\n        /* \"#utility.yul\":3007:3014   */\n      dup5\n        /* \"#utility.yul\":2998:3004   */\n      dup3\n        /* \"#utility.yul\":2987:2996   */\n      dup6\n        /* \"#utility.yul\":2983:3005   */\n      add\n        /* \"#utility.yul\":2962:3015   */\n      tag_138\n      jump\t// in\n    tag_176:\n        /* \"#utility.yul\":2952:3015   */\n      swap2\n      pop\n        /* \"#utility.yul\":2908:3025   */\n      pop\n        /* \"#utility.yul\":2703:3032   */\n      swap3\n      swap2\n      pop\n      pop\n      jump\t// out\n        /* \"#utility.yul\":3038:3156   */\n    tag_139:\n        /* \"#utility.yul\":3125:3149   */\n      tag_178\n        /* \"#utility.yul\":3143:3148   */\n      dup2\n        /* \"#utility.yul\":3125:3149   */\n      tag_129\n      jump\t// in\n    tag_178:\n        /* \"#utility.yul\":3120:3123   */\n      dup3\n        /* \"#utility.yul\":3113:3150   */\n      mstore\n        /* \"#utility.yul\":3038:3156   */\n      pop\n      pop\n      jump\t// out\n        /* \"#utility.yul\":3162:3384   */\n    tag_24:\n        /* \"#utility.yul\":3255:3259   */\n      0x00\n        /* \"#utility.yul\":3293:3295   */\n      0x20\n        /* \"#utility.yul\":3282:3291   */\n      dup3\n        /* \"#utility.yul\":3278:3296   */\n      add\n        /* \"#utility.yul\":3270:3296   */\n      swap1\n      pop\n        /* \"#utility.yul\":3306:3377   */\n      tag_180\n        /* \"#utility.yul\":3374:3375   */\n      0x00\n        /* \"#utility.yul\":3363:3372   */\n      dup4\n        /* \"#utility.yul\":3359:3376   */\n      add\n        /* \"#utility.yul\":3350:3356   */\n      dup5\n        /* \"#utility.yul\":3306:3377   */\n      tag_139\n      jump\t// in\n    tag_180:\n        /* \"#utility.yul\":3162:3384   */\n      swap3\n      swap2\n      pop\n      pop\n      jump\t// out\n        /* \"#utility.yul\":3390:3570   */\n    tag_41:\n        /* \"#utility.yul\":3438:3515   */\n      0x4e487b7100000000000000000000000000000000000000000000000000000000\n        /* \"#utility.yul\":3435:3436   */\n      0x00\n        /* \"#utility.yul\":3428:3516   */\n      mstore\n        /* \"#utility.yul\":3535:3539   */\n      0x01\n        /* \"#utility.yul\":3532:3533   */\n      0x04\n        /* \"#utility.yul\":3525:3540   */\n      mstore\n        /* \"#utility.yul\":3559:3563   */\n      0x24\n        /* \"#utility.yul\":3556:3557   */\n      0x00\n        /* \"#utility.yul\":3549:3564   */\n      revert\n        /* \"#utility.yul\":3576:3756   */\n    tag_44:\n        /* \"#utility.yul\":3624:3701   */\n      0x4e487b7100000000000000000000000000000000000000000000000000000000\n        /* \"#utility.yul\":3621:3622   */\n      0x00\n        /* \"#utility.yul\":3614:3702   */\n      mstore\n        /* \"#utility.yul\":3721:3725   */\n      0x32\n        /* \"#utility.yul\":3718:3719   */\n      0x04\n        /* \"#utility.yul\":3711:3726   */\n      mstore\n        /* \"#utility.yul\":3745:3749   */\n      0x24\n        /* \"#utility.yul\":3742:3743   */\n      0x00\n        /* \"#utility.yul\":3735:3750   */\n      revert\n        /* \"#utility.yul\":3762:3931   */\n    tag_140:\n        /* \"#utility.yul\":3846:3857   */\n      0x00\n        /* \"#utility.yul\":3880:3886   */\n      dup3\n        /* \"#utility.yul\":3875:3878   */\n      dup3\n        /* \"#utility.yul\":3868:3887   */\n      mstore\n        /* \"#utility.yul\":3920:3924   */\n      0x20\n        /* \"#utility.yul\":3915:3918   */\n      dup3\n        /* \"#utility.yul\":3911:3925   */\n      add\n        /* \"#utility.yul\":3896:3925   */\n      swap1\n      pop\n        /* \"#utility.yul\":3762:3931   */\n      swap3\n      swap2\n      pop\n      pop\n      jump\t// out\n        /* \"#utility.yul\":3937:4099   */\n    tag_141:\n        /* \"#utility.yul\":4077:4091   */\n      0x4f7574206f6620626f756e640000000000000000000000000000000000000000\n        /* \"#utility.yul\":4073:4074   */\n      0x00\n        /* \"#utility.yul\":4065:4071   */\n      dup3\n        /* \"#utility.yul\":4061:4075   */\n      add\n        /* \"#utility.yul\":4054:4092   */\n      mstore\n        /* \"#utility.yul\":3937:4099   */\n      pop\n      jump\t// out\n        /* \"#utility.yul\":4105:4471   */\n    tag_142:\n        /* \"#utility.yul\":4247:4250   */\n      0x00\n        /* \"#utility.yul\":4268:4335   */\n      tag_186\n        /* \"#utility.yul\":4332:4334   */\n      0x0c\n        /* \"#utility.yul\":4327:4330   */\n      dup4\n        /* \"#utility.yul\":4268:4335   */\n      tag_140\n      jump\t// in\n    tag_186:\n        /* \"#utility.yul\":4261:4335   */\n      swap2\n      pop\n        /* \"#utility.yul\":4344:4437   */\n      tag_187\n        /* \"#utility.yul\":4433:4436   */\n      dup3\n        /* \"#utility.yul\":4344:4437   */\n      tag_141\n      jump\t// in\n    tag_187:\n        /* \"#utility.yul\":4462:4464   */\n      0x20\n        /* \"#utility.yul\":4457:4460   */\n      dup3\n        /* \"#utility.yul\":4453:4465   */\n      add\n        /* \"#utility.yul\":4446:4465   */\n      swap1\n      pop\n        /* \"#utility.yul\":4105:4471   */\n      swap2\n      swap1\n      pop\n      jump\t// out\n        /* \"#utility.yul\":4477:4896   */\n    tag_82:\n        /* \"#utility.yul\":4643:4647   */\n      0x00\n        /* \"#utility.yul\":4681:4683   */\n      0x20\n        /* \"#utility.yul\":4670:4679   */\n      dup3\n        /* \"#utility.yul\":4666:4684   */\n      add\n        /* \"#utility.yul\":4658:4684   */\n      swap1\n      pop\n        /* \"#utility.yul\":4730:4739   */\n      dup2\n        /* \"#utility.yul\":4724:4728   */\n      dup2\n        /* \"#utility.yul\":4720:4740   */\n      sub\n        /* \"#utility.yul\":4716:4717   */\n      0x00\n        /* \"#utility.yul\":4705:4714   */\n      dup4\n        /* \"#utility.yul\":4701:4718   */\n      add\n        /* \"#utility.yul\":4694:4741   */\n      mstore\n        /* \"#utility.yul\":4758:4889   */\n      tag_189\n        /* \"#utility.yul\":4884:4888   */\n      dup2\n        /* \"#utility.yul\":4758:4889   */\n      tag_142\n      jump\t// in\n    tag_189:\n        /* \"#utility.yul\":4750:4889   */\n      swap1\n      pop\n        /* \"#utility.yul\":4477:4896   */\n      swap2\n      swap1\n      pop\n      jump\t// out\n        /* \"#utility.yul\":4902:5082   */\n    tag_143:\n        /* \"#utility.yul\":4950:5027   */\n      0x4e487b7100000000000000000000000000000000000000000000000000000000\n        /* \"#utility.yul\":4947:4948   */\n      0x00\n        /* \"#utility.yul\":4940:5028   */\n      mstore\n        /* \"#utility.yul\":5047:5051   */\n      0x11\n        /* \"#utility.yul\":5044:5045   */\n      0x04\n        /* \"#utility.yul\":5037:5052   */\n      mstore\n        /* \"#utility.yul\":5071:5075   */\n      0x24\n        /* \"#utility.yul\":5068:5069   */\n      0x00\n        /* \"#utility.yul\":5061:5076   */\n      revert\n        /* \"#utility.yul\":5088:5282   */\n    tag_87:\n        /* \"#utility.yul\":5128:5132   */\n      0x00\n        /* \"#utility.yul\":5148:5168   */\n      tag_192\n        /* \"#utility.yul\":5166:5167   */\n      dup3\n        /* \"#utility.yul\":5148:5168   */\n      tag_129\n      jump\t// in\n    tag_192:\n        /* \"#utility.yul\":5143:5168   */\n      swap2\n      pop\n        /* \"#utility.yul\":5182:5202   */\n      tag_193\n        /* \"#utility.yul\":5200:5201   */\n      dup4\n        /* \"#utility.yul\":5182:5202   */\n      tag_129\n      jump\t// in\n    tag_193:\n        /* \"#utility.yul\":5177:5202   */\n      swap3\n      pop\n        /* \"#utility.yul\":5226:5227   */\n      dup3\n        /* \"#utility.yul\":5223:5224   */\n      dup3\n        /* \"#utility.yul\":5219:5228   */\n      sub\n        /* \"#utility.yul\":5211:5228   */\n      swap1\n      pop\n        /* \"#utility.yul\":5250:5251   */\n      dup2\n        /* \"#utility.yul\":5244:5248   */\n      dup2\n        /* \"#utility.yul\":5241:5252   */\n      gt\n        /* \"#utility.yul\":5238:5275   */\n      iszero\n      tag_194\n      jumpi\n        /* \"#utility.yul\":5255:5273   */\n      tag_195\n      tag_143\n      jump\t// in\n    tag_195:\n        /* \"#utility.yul\":5238:5275   */\n    tag_194:\n        /* \"#utility.yul\":5088:5282   */\n      swap3\n      swap2\n      pop\n      pop\n      jump\t// out\n        /* \"#utility.yul\":5288:5479   */\n    tag_89:\n        /* \"#utility.yul\":5328:5331   */\n      0x00\n        /* \"#utility.yul\":5347:5367   */\n      tag_197\n        /* \"#utility.yul\":5365:5366   */\n      dup3\n        /* \"#utility.yul\":5347:5367   */\n      tag_129\n      jump\t// in\n    tag_197:\n        /* \"#utility.yul\":5342:5367   */\n      swap2\n      pop\n        /* \"#utility.yul\":5381:5401   */\n      tag_198\n        /* \"#utility.yul\":5399:5400   */\n      dup4\n        /* \"#utility.yul\":5381:5401   */\n      tag_129\n      jump\t// in\n    tag_198:\n        /* \"#utility.yul\":5376:5401   */\n      swap3\n      pop\n        /* \"#utility.yul\":5424:5425   */\n      dup3\n        /* \"#utility.yul\":5421:5422   */\n      dup3\n        /* \"#utility.yul\":5417:5426   */\n      add\n        /* \"#utility.yul\":5410:5426   */\n      swap1\n      pop\n        /* \"#utility.yul\":5445:5448   */\n      dup1\n        /* \"#utility.yul\":5442:5443   */\n      dup3\n        /* \"#utility.yul\":5439:5449   */\n      gt\n        /* \"#utility.yul\":5436:5472   */\n      iszero\n      tag_199\n      jumpi\n        /* \"#utility.yul\":5452:5470   */\n      tag_200\n      tag_143\n      jump\t// in\n    tag_200:\n        /* \"#utility.yul\":5436:5472   */\n    tag_199:\n        /* \"#utility.yul\":5288:5479   */\n      swap3\n      swap2\n      pop\n      pop\n      jump\t// out\n        /* \"#utility.yul\":5485:5718   */\n    tag_97:\n        /* \"#utility.yul\":5524:5527   */\n      0x00\n        /* \"#utility.yul\":5547:5571   */\n      tag_202\n        /* \"#utility.yul\":5565:5570   */\n      dup3\n        /* \"#utility.yul\":5547:5571   */\n      tag_129\n      jump\t// in\n    tag_202:\n        /* \"#utility.yul\":5538:5571   */\n      swap2\n      pop\n        /* \"#utility.yul\":5593:5659   */\n      0xffffffffffffffffffffffffffffffffffffffffffffffffffffffffffffffff\n        /* \"#utility.yul\":5586:5591   */\n      dup3\n        /* \"#utility.yul\":5583:5660   */\n      sub\n        /* \"#utility.yul\":5580:5683   */\n      tag_203\n      jumpi\n        /* \"#utility.yul\":5663:5681   */\n      tag_204\n      tag_143\n      jump\t// in\n    tag_204:\n        /* \"#utility.yul\":5580:5683   */\n    tag_203:\n        /* \"#utility.yul\":5710:5711   */\n      0x01\n        /* \"#utility.yul\":5703:5708   */\n      dup3\n        /* \"#utility.yul\":5699:5712   */\n      add\n        /* \"#utility.yul\":5692:5712   */\n      swap1\n      pop\n        /* \"#utility.yul\":5485:5718   */\n      swap2\n      swap1\n      pop\n      jump\t// out\n        /* \"#utility.yul\":5724:5904   */\n    tag_100:\n        /* \"#utility.yul\":5772:5849   */\n      0x4e487b7100000000000000000000000000000000000000000000000000000000\n        /* \"#utility.yul\":5769:5770   */\n      0x00\n        /* \"#utility.yul\":5762:5850   */\n      mstore\n        /* \"#utility.yul\":5869:5873   */\n      0x31\n        /* \"#utility.yul\":5866:5867   */\n      0x04\n        /* \"#utility.yul\":5859:5874   */\n      mstore\n        /* \"#utility.yul\":5893:5897   */\n      0x24\n        /* \"#utility.yul\":5890:5891   */\n      0x00\n        /* \"#utility.yul\":5883:5898   */\n      revert\n\n    auxdata: 0xa2646970667358221220da28a1a7f981aab72b4ef8922928c401788bf62bf19a715ae596d90efb81e6b864736f6c63430008130033\n}\n",
				"bytecode": {
					"linkReferences": {},
					"object": "608060405234801561001057600080fd5b50610950806100206000396000f3fe608060405234801561001057600080fd5b506004361061007d5760003560e01c8063443957691161005b57806344395769146100b45780634cc82215146100e4578063a012fb1914610100578063fd1ee54c1461011c5761007d565b806323865a881461008257806339cfea4a1461008c5780633cac14c814610096575b600080fd5b61008a61014c565b005b610094610205565b005b61009e6102f8565b6040516100ab9190610687565b60405180910390f35b6100ce60048036038101906100c991906106da565b610350565b6040516100db9190610716565b60405180910390f35b6100fe60048036038101906100f991906106da565b61036b565b005b61011a600480360381019061011591906106da565b61045d565b005b610136600480360381019061013191906106da565b6104da565b6040516101439190610716565b60405180910390f35b6040518060600160405280600160ff168152602001600260ff168152602001600360ff1681525060009060036101839291906104fe565b5061018e600261045d565b6002600080549050146101a4576101a3610731565b5b6001600080815481106101ba576101b9610760565b5b9060005260206000200154146101d3576101d2610731565b5b600260006001815481106101ea576101e9610760565b5b90600052602060002001541461020357610202610731565b5b565b6040518060800160405280600160ff168152602001600260ff168152602001600360ff168152602001600460ff168152506000906004610246929190610550565b50610251600261036b565b60016000808154811061026757610266610760565b5b9060005260206000200154146102805761027f610731565b5b6002600060018154811061029757610296610760565b5b9060005260206000200154146102b0576102af610731565b5b600460006002815481106102c7576102c6610760565b5b9060005260206000200154146102e0576102df610731565b5b6003600080549050146102f6576102f5610731565b5b565b6060600080548060200260200160405190810160405280929190818152602001828054801561034657602002820191906000526020600020905b815481526020019060010190808311610332575b5050505050905090565b600181600a811061036057600080fd5b016000915090505481565b60008054905081106103b2576040517f08c379a00000000000000000000000000000000000000000000000000000000081526004016103a9906107ec565b60405180910390fd5b60008190505b60016000805490506103ca919061083b565b8110156104315760006001826103e0919061086f565b815481106103f1576103f0610760565b5b9060005260206000200154600082815481106104105761040f610760565b5b90600052602060002001819055508080610429906108a3565b9150506103b8565b506000805480610444576104436108eb565b5b6001900381819060005260206000200160009055905550565b60006001600080549050610471919061083b565b8154811061048257610481610760565b5b9060005260206000200154600082815481106104a1576104a0610760565b5b906000526020600020018190555060008054806104c1576104c06108eb565b5b6001900381819060005260206000200160009055905550565b600081815481106104ea57600080fd5b906000526020600020016000915090505481565b82805482825590600052602060002090810192821561053f579160200282015b8281111561053e578251829060ff1690559160200191906001019061051e565b5b50905061054c91906105a2565b5090565b828054828255906000526020600020908101928215610591579160200282015b82811115610590578251829060ff16905591602001919060010190610570565b5b50905061059e91906105a2565b5090565b5b808211156105bb5760008160009055506001016105a3565b5090565b600081519050919050565b600082825260208201905092915050565b6000819050602082019050919050565b6000819050919050565b6105fe816105eb565b82525050565b600061061083836105f5565b60208301905092915050565b6000602082019050919050565b6000610634826105bf565b61063e81856105ca565b9350610649836105db565b8060005b8381101561067a5781516106618882610604565b975061066c8361061c565b92505060018101905061064d565b5085935050505092915050565b600060208201905081810360008301526106a18184610629565b905092915050565b600080fd5b6106b7816105eb565b81146106c257600080fd5b50565b6000813590506106d4816106ae565b92915050565b6000602082840312156106f0576106ef6106a9565b5b60006106fe848285016106c5565b91505092915050565b610710816105eb565b82525050565b600060208201905061072b6000830184610707565b92915050565b7f4e487b7100000000000000000000000000000000000000000000000000000000600052600160045260246000fd5b7f4e487b7100000000000000000000000000000000000000000000000000000000600052603260045260246000fd5b600082825260208201905092915050565b7f4f7574206f6620626f756e640000000000000000000000000000000000000000600082015250565b60006107d6600c8361078f565b91506107e1826107a0565b602082019050919050565b60006020820190508181036000830152610805816107c9565b9050919050565b7f4e487b7100000000000000000000000000000000000000000000000000000000600052601160045260246000fd5b6000610846826105eb565b9150610851836105eb565b92508282039050818111156108695761086861080c565b5b92915050565b600061087a826105eb565b9150610885836105eb565b925082820190508082111561089d5761089c61080c565b5b92915050565b60006108ae826105eb565b91507fffffffffffffffffffffffffffffffffffffffffffffffffffffffffffffffff82036108e0576108df61080c565b5b600182019050919050565b7f4e487b7100000000000000000000000000000000000000000000000000000000600052603160045260246000fdfea2646970667358221220da28a1a7f981aab72b4ef8922928c401788bf62bf19a715ae596d90efb81e6b864736f6c63430008130033",
					"opcodes": "PUSH1 0x80 PUSH1 0x40 MSTORE CALLVALUE DUP1 ISZERO PUSH2 0x10 JUMPI PUSH1 0x0 DUP1 REVERT JUMPDEST POP PUSH2 0x950 DUP1 PUSH2 0x20 PUSH1 0x0 CODECOPY PUSH1 0x0 RETURN INVALID PUSH1 0x80 PUSH1 0x40 MSTORE CALLVALUE DUP1 ISZERO PUSH2 0x10 JUMPI PUSH1 0x0 DUP1 REVERT JUMPDEST POP PUSH1 0x4 CALLDATASIZE LT PUSH2 0x7D JUMPI PUSH1 0x0 CALLDATALOAD PUSH1 0xE0 SHR DUP1 PUSH4 0x44395769 GT PUSH2 0x5B JUMPI DUP1 PUSH4 0x44395769 EQ PUSH2 0xB4 JUMPI DUP1 PUSH4 0x4CC82215 EQ PUSH2 0xE4 JUMPI DUP1 PUSH4 0xA012FB19 EQ PUSH2 0x100 JUMPI DUP1 PUSH4 0xFD1EE54C EQ PUSH2 0x11C JUMPI PUSH2 0x7D JUMP JUMPDEST DUP1 PUSH4 0x23865A88 EQ PUSH2 0x82 JUMPI DUP1 PUSH4 0x39CFEA4A EQ PUSH2 0x8C JUMPI DUP1 PUSH4 0x3CAC14C8 EQ PUSH2 0x96 JUMPI JUMPDEST PUSH1 0x0 DUP1 REVERT JUMPDEST PUSH2 0x8A PUSH2 0x14C JUMP JUMPDEST STOP JUMPDEST PUSH2 0x94 PUSH2 0x205 JUMP JUMPDEST STOP JUMPDEST PUSH2 0x9E PUSH2 0x2F8 JUMP JUMPDEST PUSH1 0x40 MLOAD PUSH2 0xAB SWAP2 SWAP1 PUSH2 0x687 JUMP JUMPDEST PUSH1 0x40 MLOAD DUP1 SWAP2 SUB SWAP1 RETURN JUMPDEST PUSH2 0xCE PUSH1 0x4 DUP1 CALLDATASIZE SUB DUP2 ADD SWAP1 PUSH2 0xC9 SWAP2 SWAP1 PUSH2 0x6DA JUMP JUMPDEST PUSH2 0x350 JUMP JUMPDEST PUSH1 0x40 MLOAD PUSH2 0xDB SWAP2 SWAP1 PUSH2 0x716 JUMP JUMPDEST PUSH1 0x40 MLOAD DUP1 SWAP2 SUB SWAP1 RETURN JUMPDEST PUSH2 0xFE PUSH1 0x4 DUP1 CALLDATASIZE SUB DUP2 ADD SWAP1 PUSH2 0xF9 SWAP2 SWAP1 PUSH2 0x6DA JUMP JUMPDEST PUSH2 0x36B JUMP JUMPDEST STOP JUMPDEST PUSH2 0x11A PUSH1 0x4 DUP1 CALLDATASIZE SUB DUP2 ADD SWAP1 PUSH2 0x115 SWAP2 SWAP1 PUSH2 0x6DA JUMP JUMPDEST PUSH2 0x45D JUMP JUMPDEST STOP JUMPDEST PUSH2 0x136 PUSH1 0x4 DUP1 CALLDATASIZE SUB DUP2 ADD SWAP1 PUSH2 0x131 SWAP2 SWAP1 PUSH2 0x6DA JUMP JUMPDEST PUSH2 0x4DA JUMP JUMPDEST PUSH1 0x40 MLOAD PUSH2 0x143 SWAP2 SWAP1 PUSH2 0x716 JUMP JUMPDEST PUSH1 0x40 MLOAD DUP1 SWAP2 SUB SWAP1 RETURN JUMPDEST PUSH1 0x40 MLOAD DUP1 PUSH1 0x60 ADD PUSH1 0x40 MSTORE DUP1 PUSH1 0x1 PUSH1 0xFF AND DUP2 MSTORE PUSH1 0x20 ADD PUSH1 0x2 PUSH1 0xFF AND DUP2 MSTORE PUSH1 0x20 ADD PUSH1 0x3 PUSH1 0xFF AND DUP2 MSTORE POP PUSH1 0x0 SWAP1 PUSH1 0x3 PUSH2 0x183 SWAP3 SWAP2 SWAP1 PUSH2 0x4FE JUMP JUMPDEST POP PUSH2 0x18E PUSH1 0x2 PUSH2 0x45D JUMP JUMPDEST PUSH1 0x2 PUSH1 0x0 DUP1 SLOAD SWAP1 POP EQ PUSH2 0x1A4 JUMPI PUSH2 0x1A3 PUSH2 0x731 JUMP JUMPDEST JUMPDEST PUSH1 0x1 PUSH1 0x0 DUP1 DUP2 SLOAD DUP2 LT PUSH2 0x1BA JUMPI PUSH2 0x1B9 PUSH2 0x760 JUMP JUMPDEST JUMPDEST SWAP1 PUSH1 0x0 MSTORE PUSH1 0x20 PUSH1 0x0 KECCAK256 ADD SLOAD EQ PUSH2 0x1D3 JUMPI PUSH2 0x1D2 PUSH2 0x731 JUMP JUMPDEST JUMPDEST PUSH1 0x2 PUSH1 0x0 PUSH1 0x1 DUP2 SLOAD DUP2 LT PUSH2 0x1EA JUMPI PUSH2 0x1E9 PUSH2 0x760 JUMP JUMPDEST JUMPDEST SWAP1 PUSH1 0x0 MSTORE PUSH1 0x20 PUSH1 0x0 KECCAK256 ADD SLOAD EQ PUSH2 0x203 JUMPI PUSH2 0x202 PUSH2 0x731 JUMP JUMPDEST JUMPDEST JUMP JUMPDEST PUSH1 0x40 MLOAD DUP1 PUSH1 0x80 ADD PUSH1 0x40 MSTORE DUP1 PUSH1 0x1 PUSH1 0xFF AND DUP2 MSTORE PUSH1 0x20 ADD PUSH1 0x2 PUSH1 0xFF AND DUP2 MSTORE PUSH1 0x20 ADD PUSH1 0x3 PUSH1 0xFF AND DUP2 MSTORE PUSH1 0x20 ADD PUSH1 0x4 PUSH1 0xFF AND DUP2 MSTORE POP PUSH1 0x0 SWAP1 PUSH1 0x4 PUSH2 0x246 SWAP3 SWAP2 SWAP1 PUSH2 0x550 JUMP JUMPDEST POP PUSH2 0x251 PUSH1 0x2 PUSH2 0x36B JUMP JUMPDEST PUSH1 0x1 PUSH1 0x0 DUP1 DUP2 SLOAD DUP2 LT PUSH2 0x267 JUMPI PUSH2 0x266 PUSH2 0x760 JUMP JUMPDEST JUMPDEST SWAP1 PUSH1 0x0 MSTORE PUSH1 0x20 PUSH1 0x0 KECCAK256 ADD SLOAD EQ PUSH2 0x280 JUMPI PUSH2 0x27F PUSH2 0x731 JUMP JUMPDEST JUMPDEST PUSH1 0x2 PUSH1 0x0 PUSH1 0x1 DUP2 SLOAD DUP2 LT PUSH2 0x297 JUMPI PUSH2 0x296 PUSH2 0x760 JUMP JUMPDEST JUMPDEST SWAP1 PUSH1 0x0 MSTORE PUSH1 0x20 PUSH1 0x0 KECCAK256 ADD SLOAD EQ PUSH2 0x2B0 JUMPI PUSH2 0x2AF PUSH2 0x731 JUMP JUMPDEST JUMPDEST PUSH1 0x4 PUSH1 0x0 PUSH1 0x2 DUP2 SLOAD DUP2 LT PUSH2 0x2C7 JUMPI PUSH2 0x2C6 PUSH2 0x760 JUMP JUMPDEST JUMPDEST SWAP1 PUSH1 0x0 MSTORE PUSH1 0x20 PUSH1 0x0 KECCAK256 ADD SLOAD EQ PUSH2 0x2E0 JUMPI PUSH2 0x2DF PUSH2 0x731 JUMP JUMPDEST JUMPDEST PUSH1 0x3 PUSH1 0x0 DUP1 SLOAD SWAP1 POP EQ PUSH2 0x2F6 JUMPI PUSH2 0x2F5 PUSH2 0x731 JUMP JUMPDEST JUMPDEST JUMP JUMPDEST PUSH1 0x60 PUSH1 0x0 DUP1 SLOAD DUP1 PUSH1 0x20 MUL PUSH1 0x20 ADD PUSH1 0x40 MLOAD SWAP1 DUP2 ADD PUSH1 0x40 MSTORE DUP1 SWAP3 SWAP2 SWAP1 DUP2 DUP2 MSTORE PUSH1 0x20 ADD DUP3 DUP1 SLOAD DUP1 ISZERO PUSH2 0x346 JUMPI PUSH1 0x20 MUL DUP3 ADD SWAP2 SWAP1 PUSH1 0x0 MSTORE PUSH1 0x20 PUSH1 0x0 KECCAK256 SWAP1 JUMPDEST DUP2 SLOAD DUP2 MSTORE PUSH1 0x20 ADD SWAP1 PUSH1 0x1 ADD SWAP1 DUP1 DUP4 GT PUSH2 0x332 JUMPI JUMPDEST POP POP POP POP POP SWAP1 POP SWAP1 JUMP JUMPDEST PUSH1 0x1 DUP2 PUSH1 0xA DUP2 LT PUSH2 0x360 JUMPI PUSH1 0x0 DUP1 REVERT JUMPDEST ADD PUSH1 0x0 SWAP2 POP SWAP1 POP SLOAD DUP2 JUMP JUMPDEST PUSH1 0x0 DUP1 SLOAD SWAP1 POP DUP2 LT PUSH2 0x3B2 JUMPI PUSH1 0x40 MLOAD PUSH32 0x8C379A000000000000000000000000000000000000000000000000000000000 DUP2 MSTORE PUSH1 0x4 ADD PUSH2 0x3A9 SWAP1 PUSH2 0x7EC JUMP JUMPDEST PUSH1 0x40 MLOAD DUP1 SWAP2 SUB SWAP1 REVERT JUMPDEST PUSH1 0x0 DUP2 SWAP1 POP JUMPDEST PUSH1 0x1 PUSH1 0x0 DUP1 SLOAD SWAP1 POP PUSH2 0x3CA SWAP2 SWAP1 PUSH2 0x83B JUMP JUMPDEST DUP2 LT ISZERO PUSH2 0x431 JUMPI PUSH1 0x0 PUSH1 0x1 DUP3 PUSH2 0x3E0 SWAP2 SWAP1 PUSH2 0x86F JUMP JUMPDEST DUP2 SLOAD DUP2 LT PUSH2 0x3F1 JUMPI PUSH2 0x3F0 PUSH2 0x760 JUMP JUMPDEST JUMPDEST SWAP1 PUSH1 0x0 MSTORE PUSH1 0x20 PUSH1 0x0 KECCAK256 ADD SLOAD PUSH1 0x0 DUP3 DUP2 SLOAD DUP2 LT PUSH2 0x410 JUMPI PUSH2 0x40F PUSH2 0x760 JUMP JUMPDEST JUMPDEST SWAP1 PUSH1 0x0 MSTORE PUSH1 0x20 PUSH1 0x0 KECCAK256 ADD DUP2 SWAP1 SSTORE POP DUP1 DUP1 PUSH2 0x429 SWAP1 PUSH2 0x8A3 JUMP JUMPDEST SWAP2 POP POP PUSH2 0x3B8 JUMP JUMPDEST POP PUSH1 0x0 DUP1 SLOAD DUP1 PUSH2 0x444 JUMPI PUSH2 0x443 PUSH2 0x8EB JUMP JUMPDEST JUMPDEST PUSH1 0x1 SWAP1 SUB DUP2 DUP2 SWAP1 PUSH1 0x0 MSTORE PUSH1 0x20 PUSH1 0x0 KECCAK256 ADD PUSH1 0x0 SWAP1 SSTORE SWAP1 SSTORE POP JUMP JUMPDEST PUSH1 0x0 PUSH1 0x1 PUSH1 0x0 DUP1 SLOAD SWAP1 POP PUSH2 0x471 SWAP2 SWAP1 PUSH2 0x83B JUMP JUMPDEST DUP2 SLOAD DUP2 LT PUSH2 0x482 JUMPI PUSH2 0x481 PUSH2 0x760 JUMP JUMPDEST JUMPDEST SWAP1 PUSH1 0x0 MSTORE PUSH1 0x20 PUSH1 0x0 KECCAK256 ADD SLOAD PUSH1 0x0 DUP3 DUP2 SLOAD DUP2 LT PUSH2 0x4A1 JUMPI PUSH2 0x4A0 PUSH2 0x760 JUMP JUMPDEST JUMPDEST SWAP1 PUSH1 0x0 MSTORE PUSH1 0x20 PUSH1 0x0 KECCAK256 ADD DUP2 SWAP1 SSTORE POP PUSH1 0x0 DUP1 SLOAD DUP1 PUSH2 0x4C1 JUMPI PUSH2 0x4C0 PUSH2 0x8EB JUMP JUMPDEST JUMPDEST PUSH1 0x1 SWAP1 SUB DUP2 DUP2 SWAP1 PUSH1 0x0 MSTORE PUSH1 0x20 PUSH1 0x0 KECCAK256 ADD PUSH1 0x0 SWAP1 SSTORE SWAP1 SSTORE POP JUMP JUMPDEST PUSH1 0x0 DUP2 DUP2 SLOAD DUP2 LT PUSH2 0x4EA JUMPI PUSH1 0x0 DUP1 REVERT JUMPDEST SWAP1 PUSH1 0x0 MSTORE PUSH1 0x20 PUSH1 0x0 KECCAK256 ADD PUSH1 0x0 SWAP2 POP SWAP1 POP SLOAD DUP2 JUMP JUMPDEST DUP3 DUP1 SLOAD DUP3 DUP3 SSTORE SWAP1 PUSH1 0x0 MSTORE PUSH1 0x20 PUSH1 0x0 KECCAK256 SWAP1 DUP2 ADD SWAP3 DUP3 ISZERO PUSH2 0x53F JUMPI SWAP2 PUSH1 0x20 MUL DUP3 ADD JUMPDEST DUP3 DUP2 GT ISZERO PUSH2 0x53E JUMPI DUP3 MLOAD DUP3 SWAP1 PUSH1 0xFF AND SWAP1 SSTORE SWAP2 PUSH1 0x20 ADD SWAP2 SWAP1 PUSH1 0x1 ADD SWAP1 PUSH2 0x51E JUMP JUMPDEST JUMPDEST POP SWAP1 POP PUSH2 0x54C SWAP2 SWAP1 PUSH2 0x5A2 JUMP JUMPDEST POP SWAP1 JUMP JUMPDEST DUP3 DUP1 SLOAD DUP3 DUP3 SSTORE SWAP1 PUSH1 0x0 MSTORE PUSH1 0x20 PUSH1 0x0 KECCAK256 SWAP1 DUP2 ADD SWAP3 DUP3 ISZERO PUSH2 0x591 JUMPI SWAP2 PUSH1 0x20 MUL DUP3 ADD JUMPDEST DUP3 DUP2 GT ISZERO PUSH2 0x590 JUMPI DUP3 MLOAD DUP3 SWAP1 PUSH1 0xFF AND SWAP1 SSTORE SWAP2 PUSH1 0x20 ADD SWAP2 SWAP1 PUSH1 0x1 ADD SWAP1 PUSH2 0x570 JUMP JUMPDEST JUMPDEST POP SWAP1 POP PUSH2 0x59E SWAP2 SWAP1 PUSH2 0x5A2 JUMP JUMPDEST POP SWAP1 JUMP JUMPDEST JUMPDEST DUP1 DUP3 GT ISZERO PUSH2 0x5BB JUMPI PUSH1 0x0 DUP2 PUSH1 0x0 SWAP1 SSTORE POP PUSH1 0x1 ADD PUSH2 0x5A3 JUMP JUMPDEST POP SWAP1 JUMP JUMPDEST PUSH1 0x0 DUP2 MLOAD SWAP1 POP SWAP2 SWAP1 POP JUMP JUMPDEST PUSH1 0x0 DUP3 DUP3 MSTORE PUSH1 0x20 DUP3 ADD SWAP1 POP SWAP3 SWAP2 POP POP JUMP JUMPDEST PUSH1 0x0 DUP2 SWAP1 POP PUSH1 0x20 DUP3 ADD SWAP1 POP SWAP2 SWAP1 POP JUMP JUMPDEST PUSH1 0x0 DUP2 SWAP1 POP SWAP2 SWAP1 POP JUMP JUMPDEST PUSH2 0x5FE DUP2 PUSH2 0x5EB JUMP JUMPDEST DUP3 MSTORE POP POP JUMP JUMPDEST PUSH1 0x0 PUSH2 0x610 DUP4 DUP4 PUSH2 0x5F5 JUMP JUMPDEST PUSH1 0x20 DUP4 ADD SWAP1 POP SWAP3 SWAP2 POP POP JUMP JUMPDEST PUSH1 0x0 PUSH1 0x20 DUP3 ADD SWAP1 POP SWAP2 SWAP1 POP JUMP JUMPDEST PUSH1 0x0 PUSH2 0x634 DUP3 PUSH2 0x5BF JUMP JUMPDEST PUSH2 0x63E DUP2 DUP6 PUSH2 0x5CA JUMP JUMPDEST SWAP4 POP PUSH2 0x649 DUP4 PUSH2 0x5DB JUMP JUMPDEST DUP1 PUSH1 0x0 JUMPDEST DUP4 DUP2 LT ISZERO PUSH2 0x67A JUMPI DUP2 MLOAD PUSH2 0x661 DUP9 DUP3 PUSH2 0x604 JUMP JUMPDEST SWAP8 POP PUSH2 0x66C DUP4 PUSH2 0x61C JUMP JUMPDEST SWAP3 POP POP PUSH1 0x1 DUP2 ADD SWAP1 POP PUSH2 0x64D JUMP JUMPDEST POP DUP6 SWAP4 POP POP POP POP SWAP3 SWAP2 POP POP JUMP JUMPDEST PUSH1 0x0 PUSH1 0x20 DUP3 ADD SWAP1 POP DUP2 DUP2 SUB PUSH1 0x0 DUP4 ADD MSTORE PUSH2 0x6A1 DUP2 DUP5 PUSH2 0x629 JUMP JUMPDEST SWAP1 POP SWAP3 SWAP2 POP POP JUMP JUMPDEST PUSH1 0x0 DUP1 REVERT JUMPDEST PUSH2 0x6B7 DUP2 PUSH2 0x5EB JUMP JUMPDEST DUP2 EQ PUSH2 0x6C2 JUMPI PUSH1 0x0 DUP1 REVERT JUMPDEST POP JUMP JUMPDEST PUSH1 0x0 DUP2 CALLDATALOAD SWAP1 POP PUSH2 0x6D4 DUP2 PUSH2 0x6AE JUMP JUMPDEST SWAP3 SWAP2 POP POP JUMP JUMPDEST PUSH1 0x0 PUSH1 0x20 DUP3 DUP5 SUB SLT ISZERO PUSH2 0x6F0 JUMPI PUSH2 0x6EF PUSH2 0x6A9 JUMP JUMPDEST JUMPDEST PUSH1 0x0 PUSH2 0x6FE DUP5 DUP3 DUP6 ADD PUSH2 0x6C5 JUMP JUMPDEST SWAP2 POP POP SWAP3 SWAP2 POP POP JUMP JUMPDEST PUSH2 0x710 DUP2 PUSH2 0x5EB JUMP JUMPDEST DUP3 MSTORE POP POP JUMP JUMPDEST PUSH1 0x0 PUSH1 0x20 DUP3 ADD SWAP1 POP PUSH2 0x72B PUSH1 0x0 DUP4 ADD DUP5 PUSH2 0x707 JUMP JUMPDEST SWAP3 SWAP2 POP POP JUMP JUMPDEST PUSH32 0x4E487B7100000000000000000000000000000000000000000000000000000000 PUSH1 0x0 MSTORE PUSH1 0x1 PUSH1 0x4 MSTORE PUSH1 0x24 PUSH1 0x0 REVERT JUMPDEST PUSH32 0x4E487B7100000000000000000000000000000000000000000000000000000000 PUSH1 0x0 MSTORE PUSH1 0x32 PUSH1 0x4 MSTORE PUSH1 0x24 PUSH1 0x0 REVERT JUMPDEST PUSH1 0x0 DUP3 DUP3 MSTORE PUSH1 0x20 DUP3 ADD SWAP1 POP SWAP3 SWAP2 POP POP JUMP JUMPDEST PUSH32 0x4F7574206F6620626F756E640000000000000000000000000000000000000000 PUSH1 0x0 DUP3 ADD MSTORE POP JUMP JUMPDEST PUSH1 0x0 PUSH2 0x7D6 PUSH1 0xC DUP4 PUSH2 0x78F JUMP JUMPDEST SWAP2 POP PUSH2 0x7E1 DUP3 PUSH2 0x7A0 JUMP JUMPDEST PUSH1 0x20 DUP3 ADD SWAP1 POP SWAP2 SWAP1 POP JUMP JUMPDEST PUSH1 0x0 PUSH1 0x20 DUP3 ADD SWAP1 POP DUP2 DUP2 SUB PUSH1 0x0 DUP4 ADD MSTORE PUSH2 0x805 DUP2 PUSH2 0x7C9 JUMP JUMPDEST SWAP1 POP SWAP2 SWAP1 POP JUMP JUMPDEST PUSH32 0x4E487B7100000000000000000000000000000000000000000000000000000000 PUSH1 0x0 MSTORE PUSH1 0x11 PUSH1 0x4 MSTORE PUSH1 0x24 PUSH1 0x0 REVERT JUMPDEST PUSH1 0x0 PUSH2 0x846 DUP3 PUSH2 0x5EB JUMP JUMPDEST SWAP2 POP PUSH2 0x851 DUP4 PUSH2 0x5EB JUMP JUMPDEST SWAP3 POP DUP3 DUP3 SUB SWAP1 POP DUP2 DUP2 GT ISZERO PUSH2 0x869 JUMPI PUSH2 0x868 PUSH2 0x80C JUMP JUMPDEST JUMPDEST SWAP3 SWAP2 POP POP JUMP JUMPDEST PUSH1 0x0 PUSH2 0x87A DUP3 PUSH2 0x5EB JUMP JUMPDEST SWAP2 POP PUSH2 0x885 DUP4 PUSH2 0x5EB JUMP JUMPDEST SWAP3 POP DUP3 DUP3 ADD SWAP1 POP DUP1 DUP3 GT ISZERO PUSH2 0x89D JUMPI PUSH2 0x89C PUSH2 0x80C JUMP JUMPDEST JUMPDEST SWAP3 SWAP2 POP POP JUMP JUMPDEST PUSH1 0x0 PUSH2 0x8AE DUP3 PUSH2 0x5EB JUMP JUMPDEST SWAP2 POP PUSH32 0xFFFFFFFFFFFFFFFFFFFFFFFFFFFFFFFFFFFFFFFFFFFFFFFFFFFFFFFFFFFFFFFF DUP3 SUB PUSH2 0x8E0 JUMPI PUSH2 0x8DF PUSH2 0x80C JUMP JUMPDEST JUMPDEST PUSH1 0x1 DUP3 ADD SWAP1 POP SWAP2 SWAP1 POP JUMP JUMPDEST PUSH32 0x4E487B7100000000000000000000000000000000000000000000000000000000 PUSH1 0x0 MSTORE PUSH1 0x31 PUSH1 0x4 MSTORE PUSH1 0x24 PUSH1 0x0 REVERT INVALID LOG2 PUSH5 0x6970667358 0x22 SLT KECCAK256 0xDA 0x28 LOG1 0xA7 0xF9 DUP2 0xAA 0xB7 0x2B 0x4E 0xF8 SWAP3 0x29 0x28 0xC4 ADD PUSH25 0x8BF62BF19A715AE596D90EFB81E6B864736F6C634300081300 CALLER "
				},
				"gasEstimates": {
					"creation": {
						"codeDepositCost": "476800",
						"executionCost": "511",
						"totalCost": "477311"
					},
					"external": {
						"nums(uint256)": "infinite",
						"numsFixed(uint256)": "infinite",
						"remove(uint256)": "infinite",
						"returnArray()": "infinite",
						"simplerRemove(uint256)": "infinite",
						"testRemove()": "infinite",
						"testSimpleRemove()": "infinite"
					}
				},
				"methodIdentifiers": {
					"nums(uint256)": "fd1ee54c",
					"numsFixed(uint256)": "44395769",
					"remove(uint256)": "4cc82215",
					"returnArray()": "3cac14c8",
					"simplerRemove(uint256)": "a012fb19",
					"testRemove()": "39cfea4a",
					"testSimpleRemove()": "23865a88"
				}
			},
			"storageLayout": {
				"storage": [
					{
						"astId": 4,
						"contract": "Array.sol:Array",
						"label": "nums",
						"offset": 0,
						"slot": "0",
						"type": "t_array(t_uint256)dyn_storage"
					},
					{
						"astId": 8,
						"contract": "Array.sol:Array",
						"label": "numsFixed",
						"offset": 0,
						"slot": "1",
						"type": "t_array(t_uint256)10_storage"
					}
				],
				"types": {
					"t_array(t_uint256)10_storage": {
						"base": "t_uint256",
						"encoding": "inplace",
						"label": "uint256[10]",
						"numberOfBytes": "320"
					},
					"t_array(t_uint256)dyn_storage": {
						"base": "t_uint256",
						"encoding": "dynamic_array",
						"label": "uint256[]",
						"numberOfBytes": "32"
					},
					"t_uint256": {
						"encoding": "inplace",
						"label": "uint256",
						"numberOfBytes": "32"
					}
				}
			},
			"userdoc": {
				"kind": "user",
				"methods": {},
				"version": 1
			}
		}
	}
}