{
	"Func.sol": {
		"FuncModifier": {
			"abi": [
				{
					"inputs": [],
					"name": "count",
					"outputs": [
						{
							"internalType": "uint256",
							"name": "",
							"type": "uint256"
						}
					],
					"stateMutability": "view",
					"type": "function"
				},
				{
					"inputs": [],
					"name": "dec",
					"outputs": [],
					"stateMutability": "nonpayable",
					"type": "function"
				},
				{
					"inputs": [],
					"name": "inc",
					"outputs": [],
					"stateMutability": "nonpayable",
					"type": "function"
				},
				{
					"inputs": [
						{
							"internalType": "uint256",
							"name": "_s",
							"type": "uint256"
						}
					],
					"name": "incBy",
					"outputs": [],
					"stateMutability": "nonpayable",
					"type": "function"
				},
				{
					"inputs": [],
					"name": "paused",
					"outputs": [
						{
							"internalType": "bool",
							"name": "",
							"type": "bool"
						}
					],
					"stateMutability": "view",
					"type": "function"
				},
				{
					"inputs": [
						{
							"internalType": "bool",
							"name": "_paused",
							"type": "bool"
						}
					],
					"name": "setPause",
					"outputs": [],
					"stateMutability": "nonpayable",
					"type": "function"
				}
			],
			"devdoc": {
				"kind": "dev",
				"methods": {},
				"version": 1
			},
			"evm": {
				"assembly": "    /* \"Func.sol\":59:858  contract FuncModifier {... */\n  mstore(0x40, 0x80)\n  callvalue\n  dup1\n  iszero\n  tag_1\n  jumpi\n  0x00\n  dup1\n  revert\ntag_1:\n  pop\n  dataSize(sub_0)\n  dup1\n  dataOffset(sub_0)\n  0x00\n  codecopy\n  0x00\n  return\nstop\n\nsub_0: assembly {\n        /* \"Func.sol\":59:858  contract FuncModifier {... */\n      mstore(0x40, 0x80)\n      callvalue\n      dup1\n      iszero\n      tag_1\n      jumpi\n      0x00\n      dup1\n      revert\n    tag_1:\n      pop\n      jumpi(tag_2, lt(calldatasize, 0x04))\n      shr(0xe0, calldataload(0x00))\n      dup1\n      0x06661abd\n      eq\n      tag_3\n      jumpi\n      dup1\n      0x371303c0\n      eq\n      tag_4\n      jumpi\n      dup1\n      0x5c975abb\n      eq\n      tag_5\n      jumpi\n      dup1\n      0x70119d06\n      eq\n      tag_6\n      jumpi\n      dup1\n      0xb3bcfa82\n      eq\n      tag_7\n      jumpi\n      dup1\n      0xbedb86fb\n      eq\n      tag_8\n      jumpi\n    tag_2:\n      0x00\n      dup1\n      revert\n        /* \"Func.sol\":88:105  uint public count */\n    tag_3:\n      tag_9\n      tag_10\n      jump\t// in\n    tag_9:\n      mload(0x40)\n      tag_11\n      swap2\n      swap1\n      tag_12\n      jump\t// in\n    tag_11:\n      mload(0x40)\n      dup1\n      swap2\n      sub\n      swap1\n      return\n        /* \"Func.sol\":328:392  function inc() external whenNotPaused {... */\n    tag_4:\n      tag_13\n      tag_14\n      jump\t// in\n    tag_13:\n      stop\n        /* \"Func.sol\":112:130  bool public paused */\n    tag_5:\n      tag_15\n      tag_16\n      jump\t// in\n    tag_15:\n      mload(0x40)\n      tag_17\n      swap2\n      swap1\n      tag_18\n      jump\t// in\n    tag_17:\n      mload(0x40)\n      dup1\n      swap2\n      sub\n      swap1\n      return\n        /* \"Func.sol\":606:707  function incBy(uint _s) external whenNotPaused cap(_s) sandwichModifier{... */\n    tag_6:\n      tag_19\n      0x04\n      dup1\n      calldatasize\n      sub\n      dup2\n      add\n      swap1\n      tag_20\n      swap2\n      swap1\n      tag_21\n      jump\t// in\n    tag_20:\n      tag_22\n      jump\t// in\n    tag_19:\n      stop\n        /* \"Func.sol\":400:464  function dec() external whenNotPaused {... */\n    tag_7:\n      tag_23\n      tag_24\n      jump\t// in\n    tag_23:\n      stop\n        /* \"Func.sol\":139:215  function setPause(bool _paused) external {... */\n    tag_8:\n      tag_25\n      0x04\n      dup1\n      calldatasize\n      sub\n      dup2\n      add\n      swap1\n      tag_26\n      swap2\n      swap1\n      tag_27\n      jump\t// in\n    tag_26:\n      tag_28\n      jump\t// in\n    tag_25:\n      stop\n        /* \"Func.sol\":88:105  uint public count */\n    tag_10:\n      sload(0x00)\n      dup2\n      jump\t// out\n        /* \"Func.sol\":328:392  function inc() external whenNotPaused {... */\n    tag_14:\n        /* \"Func.sol\":267:273  paused */\n      0x01\n      0x00\n      swap1\n      sload\n      swap1\n      0x0100\n      exp\n      swap1\n      div\n      0xff\n      and\n        /* \"Func.sol\":266:273  !paused */\n      iszero\n        /* \"Func.sol\":258:300  require(!paused, \"Paused was set to true\") */\n      tag_30\n      jumpi\n      mload(0x40)\n      0x08c379a000000000000000000000000000000000000000000000000000000000\n      dup2\n      mstore\n      0x04\n      add\n      tag_31\n      swap1\n      tag_32\n      jump\t// in\n    tag_31:\n      mload(0x40)\n      dup1\n      swap2\n      sub\n      swap1\n      revert\n    tag_30:\n        /* \"Func.sol\":377:382  count */\n      0x00\n      dup1\n        /* \"Func.sol\":377:384  count++ */\n      dup2\n      sload\n      dup1\n      swap3\n      swap2\n      swap1\n      tag_34\n      swap1\n      tag_35\n      jump\t// in\n    tag_34:\n      swap2\n      swap1\n      pop\n      sstore\n      pop\n        /* \"Func.sol\":328:392  function inc() external whenNotPaused {... */\n      jump\t// out\n        /* \"Func.sol\":112:130  bool public paused */\n    tag_16:\n      0x01\n      0x00\n      swap1\n      sload\n      swap1\n      0x0100\n      exp\n      swap1\n      div\n      0xff\n      and\n      dup2\n      jump\t// out\n        /* \"Func.sol\":606:707  function incBy(uint _s) external whenNotPaused cap(_s) sandwichModifier{... */\n    tag_22:\n        /* \"Func.sol\":267:273  paused */\n      0x01\n      0x00\n      swap1\n      sload\n      swap1\n      0x0100\n      exp\n      swap1\n      div\n      0xff\n      and\n        /* \"Func.sol\":266:273  !paused */\n      iszero\n        /* \"Func.sol\":258:300  require(!paused, \"Paused was set to true\") */\n      tag_37\n      jumpi\n      mload(0x40)\n      0x08c379a000000000000000000000000000000000000000000000000000000000\n      dup2\n      mstore\n      0x04\n      add\n      tag_38\n      swap1\n      tag_32\n      jump\t// in\n    tag_38:\n      mload(0x40)\n      dup1\n      swap2\n      sub\n      swap1\n      revert\n    tag_37:\n        /* \"Func.sol\":657:659  _s */\n      dup1\n        /* \"Func.sol\":515:518  100 */\n      0x64\n        /* \"Func.sol\":511:512  x */\n      dup2\n        /* \"Func.sol\":511:518  x < 100 */\n      lt\n        /* \"Func.sol\":503:531  require(x < 100, \"x >= 100\") */\n      tag_40\n      jumpi\n      mload(0x40)\n      0x08c379a000000000000000000000000000000000000000000000000000000000\n      dup2\n      mstore\n      0x04\n      add\n      tag_41\n      swap1\n      tag_42\n      jump\t// in\n    tag_41:\n      mload(0x40)\n      dup1\n      swap2\n      sub\n      swap1\n      revert\n    tag_40:\n        /* \"Func.sol\":762:764  10 */\n      0x0a\n        /* \"Func.sol\":753:758  count */\n      0x00\n      dup1\n        /* \"Func.sol\":753:764  count += 10 */\n      dup3\n      dup3\n      sload\n      tag_44\n      swap2\n      swap1\n      tag_45\n      jump\t// in\n    tag_44:\n      swap3\n      pop\n      pop\n      dup2\n      swap1\n      sstore\n      pop\n        /* \"Func.sol\":697:699  _s */\n      dup2\n        /* \"Func.sol\":688:693  count */\n      0x00\n      dup1\n        /* \"Func.sol\":688:699  count += _s */\n      dup3\n      dup3\n      sload\n      tag_47\n      swap2\n      swap1\n      tag_45\n      jump\t// in\n    tag_47:\n      swap3\n      pop\n      pop\n      dup2\n      swap1\n      sstore\n      pop\n        /* \"Func.sol\":843:845  99 */\n      0x63\n        /* \"Func.sol\":834:839  count */\n      0x00\n      dup1\n        /* \"Func.sol\":834:845  count += 99 */\n      dup3\n      dup3\n      sload\n      tag_48\n      swap2\n      swap1\n      tag_45\n      jump\t// in\n    tag_48:\n      swap3\n      pop\n      pop\n      dup2\n      swap1\n      sstore\n      pop\n        /* \"Func.sol\":311:312  _ */\n      pop\n        /* \"Func.sol\":606:707  function incBy(uint _s) external whenNotPaused cap(_s) sandwichModifier{... */\n      pop\n      jump\t// out\n        /* \"Func.sol\":400:464  function dec() external whenNotPaused {... */\n    tag_24:\n        /* \"Func.sol\":267:273  paused */\n      0x01\n      0x00\n      swap1\n      sload\n      swap1\n      0x0100\n      exp\n      swap1\n      div\n      0xff\n      and\n        /* \"Func.sol\":266:273  !paused */\n      iszero\n        /* \"Func.sol\":258:300  require(!paused, \"Paused was set to true\") */\n      tag_50\n      jumpi\n      mload(0x40)\n      0x08c379a000000000000000000000000000000000000000000000000000000000\n      dup2\n      mstore\n      0x04\n      add\n      tag_51\n      swap1\n      tag_32\n      jump\t// in\n    tag_51:\n      mload(0x40)\n      dup1\n      swap2\n      sub\n      swap1\n      revert\n    tag_50:\n        /* \"Func.sol\":449:454  count */\n      0x00\n      dup1\n        /* \"Func.sol\":449:456  count-- */\n      dup2\n      sload\n      dup1\n      swap3\n      swap2\n      swap1\n      tag_53\n      swap1\n      tag_54\n      jump\t// in\n    tag_53:\n      swap2\n      swap1\n      pop\n      sstore\n      pop\n        /* \"Func.sol\":400:464  function dec() external whenNotPaused {... */\n      jump\t// out\n        /* \"Func.sol\":139:215  function setPause(bool _paused) external {... */\n    tag_28:\n        /* \"Func.sol\":200:207  _paused */\n      dup1\n        /* \"Func.sol\":191:197  paused */\n      0x01\n      0x00\n        /* \"Func.sol\":191:207  paused = _paused */\n      0x0100\n      exp\n      dup2\n      sload\n      dup2\n      0xff\n      mul\n      not\n      and\n      swap1\n      dup4\n      iszero\n      iszero\n      mul\n      or\n      swap1\n      sstore\n      pop\n        /* \"Func.sol\":139:215  function setPause(bool _paused) external {... */\n      pop\n      jump\t// out\n        /* \"#utility.yul\":7:84   */\n    tag_56:\n        /* \"#utility.yul\":44:51   */\n      0x00\n        /* \"#utility.yul\":73:78   */\n      dup2\n        /* \"#utility.yul\":62:78   */\n      swap1\n      pop\n        /* \"#utility.yul\":7:84   */\n      swap2\n      swap1\n      pop\n      jump\t// out\n        /* \"#utility.yul\":90:208   */\n    tag_57:\n        /* \"#utility.yul\":177:201   */\n      tag_76\n        /* \"#utility.yul\":195:200   */\n      dup2\n        /* \"#utility.yul\":177:201   */\n      tag_56\n      jump\t// in\n    tag_76:\n        /* \"#utility.yul\":172:175   */\n      dup3\n        /* \"#utility.yul\":165:202   */\n      mstore\n        /* \"#utility.yul\":90:208   */\n      pop\n      pop\n      jump\t// out\n        /* \"#utility.yul\":214:436   */\n    tag_12:\n        /* \"#utility.yul\":307:311   */\n      0x00\n        /* \"#utility.yul\":345:347   */\n      0x20\n        /* \"#utility.yul\":334:343   */\n      dup3\n        /* \"#utility.yul\":330:348   */\n      add\n        /* \"#utility.yul\":322:348   */\n      swap1\n      pop\n        /* \"#utility.yul\":358:429   */\n      tag_78\n        /* \"#utility.yul\":426:427   */\n      0x00\n        /* \"#utility.yul\":415:424   */\n      dup4\n        /* \"#utility.yul\":411:428   */\n      add\n        /* \"#utility.yul\":402:408   */\n      dup5\n        /* \"#utility.yul\":358:429   */\n      tag_57\n      jump\t// in\n    tag_78:\n        /* \"#utility.yul\":214:436   */\n      swap3\n      swap2\n      pop\n      pop\n      jump\t// out\n        /* \"#utility.yul\":442:532   */\n    tag_58:\n        /* \"#utility.yul\":476:483   */\n      0x00\n        /* \"#utility.yul\":519:524   */\n      dup2\n        /* \"#utility.yul\":512:525   */\n      iszero\n        /* \"#utility.yul\":505:526   */\n      iszero\n        /* \"#utility.yul\":494:526   */\n      swap1\n      pop\n        /* \"#utility.yul\":442:532   */\n      swap2\n      swap1\n      pop\n      jump\t// out\n        /* \"#utility.yul\":538:647   */\n    tag_59:\n        /* \"#utility.yul\":619:640   */\n      tag_81\n        /* \"#utility.yul\":634:639   */\n      dup2\n        /* \"#utility.yul\":619:640   */\n      tag_58\n      jump\t// in\n    tag_81:\n        /* \"#utility.yul\":614:617   */\n      dup3\n        /* \"#utility.yul\":607:641   */\n      mstore\n        /* \"#utility.yul\":538:647   */\n      pop\n      pop\n      jump\t// out\n        /* \"#utility.yul\":653:863   */\n    tag_18:\n        /* \"#utility.yul\":740:744   */\n      0x00\n        /* \"#utility.yul\":778:780   */\n      0x20\n        /* \"#utility.yul\":767:776   */\n      dup3\n        /* \"#utility.yul\":763:781   */\n      add\n        /* \"#utility.yul\":755:781   */\n      swap1\n      pop\n        /* \"#utility.yul\":791:856   */\n      tag_83\n        /* \"#utility.yul\":853:854   */\n      0x00\n        /* \"#utility.yul\":842:851   */\n      dup4\n        /* \"#utility.yul\":838:855   */\n      add\n        /* \"#utility.yul\":829:835   */\n      dup5\n        /* \"#utility.yul\":791:856   */\n      tag_59\n      jump\t// in\n    tag_83:\n        /* \"#utility.yul\":653:863   */\n      swap3\n      swap2\n      pop\n      pop\n      jump\t// out\n        /* \"#utility.yul\":950:1067   */\n    tag_61:\n        /* \"#utility.yul\":1059:1060   */\n      0x00\n        /* \"#utility.yul\":1056:1057   */\n      dup1\n        /* \"#utility.yul\":1049:1061   */\n      revert\n        /* \"#utility.yul\":1196:1318   */\n    tag_63:\n        /* \"#utility.yul\":1269:1293   */\n      tag_88\n        /* \"#utility.yul\":1287:1292   */\n      dup2\n        /* \"#utility.yul\":1269:1293   */\n      tag_56\n      jump\t// in\n    tag_88:\n        /* \"#utility.yul\":1262:1267   */\n      dup2\n        /* \"#utility.yul\":1259:1294   */\n      eq\n        /* \"#utility.yul\":1249:1312   */\n      tag_89\n      jumpi\n        /* \"#utility.yul\":1308:1309   */\n      0x00\n        /* \"#utility.yul\":1305:1306   */\n      dup1\n        /* \"#utility.yul\":1298:1310   */\n      revert\n        /* \"#utility.yul\":1249:1312   */\n    tag_89:\n        /* \"#utility.yul\":1196:1318   */\n      pop\n      jump\t// out\n        /* \"#utility.yul\":1324:1463   */\n    tag_64:\n        /* \"#utility.yul\":1370:1375   */\n      0x00\n        /* \"#utility.yul\":1408:1414   */\n      dup2\n        /* \"#utility.yul\":1395:1415   */\n      calldataload\n        /* \"#utility.yul\":1386:1415   */\n      swap1\n      pop\n        /* \"#utility.yul\":1424:1457   */\n      tag_91\n        /* \"#utility.yul\":1451:1456   */\n      dup2\n        /* \"#utility.yul\":1424:1457   */\n      tag_63\n      jump\t// in\n    tag_91:\n        /* \"#utility.yul\":1324:1463   */\n      swap3\n      swap2\n      pop\n      pop\n      jump\t// out\n        /* \"#utility.yul\":1469:1798   */\n    tag_21:\n        /* \"#utility.yul\":1528:1534   */\n      0x00\n        /* \"#utility.yul\":1577:1579   */\n      0x20\n        /* \"#utility.yul\":1565:1574   */\n      dup3\n        /* \"#utility.yul\":1556:1563   */\n      dup5\n        /* \"#utility.yul\":1552:1575   */\n      sub\n        /* \"#utility.yul\":1548:1580   */\n      slt\n        /* \"#utility.yul\":1545:1664   */\n      iszero\n      tag_93\n      jumpi\n        /* \"#utility.yul\":1583:1662   */\n      tag_94\n      tag_61\n      jump\t// in\n    tag_94:\n        /* \"#utility.yul\":1545:1664   */\n    tag_93:\n        /* \"#utility.yul\":1703:1704   */\n      0x00\n        /* \"#utility.yul\":1728:1781   */\n      tag_95\n        /* \"#utility.yul\":1773:1780   */\n      dup5\n        /* \"#utility.yul\":1764:1770   */\n      dup3\n        /* \"#utility.yul\":1753:1762   */\n      dup6\n        /* \"#utility.yul\":1749:1771   */\n      add\n        /* \"#utility.yul\":1728:1781   */\n      tag_64\n      jump\t// in\n    tag_95:\n        /* \"#utility.yul\":1718:1781   */\n      swap2\n      pop\n        /* \"#utility.yul\":1674:1791   */\n      pop\n        /* \"#utility.yul\":1469:1798   */\n      swap3\n      swap2\n      pop\n      pop\n      jump\t// out\n        /* \"#utility.yul\":1804:1920   */\n    tag_65:\n        /* \"#utility.yul\":1874:1895   */\n      tag_97\n        /* \"#utility.yul\":1889:1894   */\n      dup2\n        /* \"#utility.yul\":1874:1895   */\n      tag_58\n      jump\t// in\n    tag_97:\n        /* \"#utility.yul\":1867:1872   */\n      dup2\n        /* \"#utility.yul\":1864:1896   */\n      eq\n        /* \"#utility.yul\":1854:1914   */\n      tag_98\n      jumpi\n        /* \"#utility.yul\":1910:1911   */\n      0x00\n        /* \"#utility.yul\":1907:1908   */\n      dup1\n        /* \"#utility.yul\":1900:1912   */\n      revert\n        /* \"#utility.yul\":1854:1914   */\n    tag_98:\n        /* \"#utility.yul\":1804:1920   */\n      pop\n      jump\t// out\n        /* \"#utility.yul\":1926:2059   */\n    tag_66:\n        /* \"#utility.yul\":1969:1974   */\n      0x00\n        /* \"#utility.yul\":2007:2013   */\n      dup2\n        /* \"#utility.yul\":1994:2014   */\n      calldataload\n        /* \"#utility.yul\":1985:2014   */\n      swap1\n      pop\n        /* \"#utility.yul\":2023:2053   */\n      tag_100\n        /* \"#utility.yul\":2047:2052   */\n      dup2\n        /* \"#utility.yul\":2023:2053   */\n      tag_65\n      jump\t// in\n    tag_100:\n        /* \"#utility.yul\":1926:2059   */\n      swap3\n      swap2\n      pop\n      pop\n      jump\t// out\n        /* \"#utility.yul\":2065:2388   */\n    tag_27:\n        /* \"#utility.yul\":2121:2127   */\n      0x00\n        /* \"#utility.yul\":2170:2172   */\n      0x20\n        /* \"#utility.yul\":2158:2167   */\n      dup3\n        /* \"#utility.yul\":2149:2156   */\n      dup5\n        /* \"#utility.yul\":2145:2168   */\n      sub\n        /* \"#utility.yul\":2141:2173   */\n      slt\n        /* \"#utility.yul\":2138:2257   */\n      iszero\n      tag_102\n      jumpi\n        /* \"#utility.yul\":2176:2255   */\n      tag_103\n      tag_61\n      jump\t// in\n    tag_103:\n        /* \"#utility.yul\":2138:2257   */\n    tag_102:\n        /* \"#utility.yul\":2296:2297   */\n      0x00\n        /* \"#utility.yul\":2321:2371   */\n      tag_104\n        /* \"#utility.yul\":2363:2370   */\n      dup5\n        /* \"#utility.yul\":2354:2360   */\n      dup3\n        /* \"#utility.yul\":2343:2352   */\n      dup6\n        /* \"#utility.yul\":2339:2361   */\n      add\n        /* \"#utility.yul\":2321:2371   */\n      tag_66\n      jump\t// in\n    tag_104:\n        /* \"#utility.yul\":2311:2371   */\n      swap2\n      pop\n        /* \"#utility.yul\":2267:2381   */\n      pop\n        /* \"#utility.yul\":2065:2388   */\n      swap3\n      swap2\n      pop\n      pop\n      jump\t// out\n        /* \"#utility.yul\":2394:2563   */\n    tag_67:\n        /* \"#utility.yul\":2478:2489   */\n      0x00\n        /* \"#utility.yul\":2512:2518   */\n      dup3\n        /* \"#utility.yul\":2507:2510   */\n      dup3\n        /* \"#utility.yul\":2500:2519   */\n      mstore\n        /* \"#utility.yul\":2552:2556   */\n      0x20\n        /* \"#utility.yul\":2547:2550   */\n      dup3\n        /* \"#utility.yul\":2543:2557   */\n      add\n        /* \"#utility.yul\":2528:2557   */\n      swap1\n      pop\n        /* \"#utility.yul\":2394:2563   */\n      swap3\n      swap2\n      pop\n      pop\n      jump\t// out\n        /* \"#utility.yul\":2569:2741   */\n    tag_68:\n        /* \"#utility.yul\":2709:2733   */\n      0x506175736564207761732073657420746f207472756500000000000000000000\n        /* \"#utility.yul\":2705:2706   */\n      0x00\n        /* \"#utility.yul\":2697:2703   */\n      dup3\n        /* \"#utility.yul\":2693:2707   */\n      add\n        /* \"#utility.yul\":2686:2734   */\n      mstore\n        /* \"#utility.yul\":2569:2741   */\n      pop\n      jump\t// out\n        /* \"#utility.yul\":2747:3113   */\n    tag_69:\n        /* \"#utility.yul\":2889:2892   */\n      0x00\n        /* \"#utility.yul\":2910:2977   */\n      tag_108\n        /* \"#utility.yul\":2974:2976   */\n      0x16\n        /* \"#utility.yul\":2969:2972   */\n      dup4\n        /* \"#utility.yul\":2910:2977   */\n      tag_67\n      jump\t// in\n    tag_108:\n        /* \"#utility.yul\":2903:2977   */\n      swap2\n      pop\n        /* \"#utility.yul\":2986:3079   */\n      tag_109\n        /* \"#utility.yul\":3075:3078   */\n      dup3\n        /* \"#utility.yul\":2986:3079   */\n      tag_68\n      jump\t// in\n    tag_109:\n        /* \"#utility.yul\":3104:3106   */\n      0x20\n        /* \"#utility.yul\":3099:3102   */\n      dup3\n        /* \"#utility.yul\":3095:3107   */\n      add\n        /* \"#utility.yul\":3088:3107   */\n      swap1\n      pop\n        /* \"#utility.yul\":2747:3113   */\n      swap2\n      swap1\n      pop\n      jump\t// out\n        /* \"#utility.yul\":3119:3538   */\n    tag_32:\n        /* \"#utility.yul\":3285:3289   */\n      0x00\n        /* \"#utility.yul\":3323:3325   */\n      0x20\n        /* \"#utility.yul\":3312:3321   */\n      dup3\n        /* \"#utility.yul\":3308:3326   */\n      add\n        /* \"#utility.yul\":3300:3326   */\n      swap1\n      pop\n        /* \"#utility.yul\":3372:3381   */\n      dup2\n        /* \"#utility.yul\":3366:3370   */\n      dup2\n        /* \"#utility.yul\":3362:3382   */\n      sub\n        /* \"#utility.yul\":3358:3359   */\n      0x00\n        /* \"#utility.yul\":3347:3356   */\n      dup4\n        /* \"#utility.yul\":3343:3360   */\n      add\n        /* \"#utility.yul\":3336:3383   */\n      mstore\n        /* \"#utility.yul\":3400:3531   */\n      tag_111\n        /* \"#utility.yul\":3526:3530   */\n      dup2\n        /* \"#utility.yul\":3400:3531   */\n      tag_69\n      jump\t// in\n    tag_111:\n        /* \"#utility.yul\":3392:3531   */\n      swap1\n      pop\n        /* \"#utility.yul\":3119:3538   */\n      swap2\n      swap1\n      pop\n      jump\t// out\n        /* \"#utility.yul\":3544:3724   */\n    tag_70:\n        /* \"#utility.yul\":3592:3669   */\n      0x4e487b7100000000000000000000000000000000000000000000000000000000\n        /* \"#utility.yul\":3589:3590   */\n      0x00\n        /* \"#utility.yul\":3582:3670   */\n      mstore\n        /* \"#utility.yul\":3689:3693   */\n      0x11\n        /* \"#utility.yul\":3686:3687   */\n      0x04\n        /* \"#utility.yul\":3679:3694   */\n      mstore\n        /* \"#utility.yul\":3713:3717   */\n      0x24\n        /* \"#utility.yul\":3710:3711   */\n      0x00\n        /* \"#utility.yul\":3703:3718   */\n      revert\n        /* \"#utility.yul\":3730:3963   */\n    tag_35:\n        /* \"#utility.yul\":3769:3772   */\n      0x00\n        /* \"#utility.yul\":3792:3816   */\n      tag_114\n        /* \"#utility.yul\":3810:3815   */\n      dup3\n        /* \"#utility.yul\":3792:3816   */\n      tag_56\n      jump\t// in\n    tag_114:\n        /* \"#utility.yul\":3783:3816   */\n      swap2\n      pop\n        /* \"#utility.yul\":3838:3904   */\n      0xffffffffffffffffffffffffffffffffffffffffffffffffffffffffffffffff\n        /* \"#utility.yul\":3831:3836   */\n      dup3\n        /* \"#utility.yul\":3828:3905   */\n      sub\n        /* \"#utility.yul\":3825:3928   */\n      tag_115\n      jumpi\n        /* \"#utility.yul\":3908:3926   */\n      tag_116\n      tag_70\n      jump\t// in\n    tag_116:\n        /* \"#utility.yul\":3825:3928   */\n    tag_115:\n        /* \"#utility.yul\":3955:3956   */\n      0x01\n        /* \"#utility.yul\":3948:3953   */\n      dup3\n        /* \"#utility.yul\":3944:3957   */\n      add\n        /* \"#utility.yul\":3937:3957   */\n      swap1\n      pop\n        /* \"#utility.yul\":3730:3963   */\n      swap2\n      swap1\n      pop\n      jump\t// out\n        /* \"#utility.yul\":3969:4127   */\n    tag_71:\n        /* \"#utility.yul\":4109:4119   */\n      0x78203e3d20313030000000000000000000000000000000000000000000000000\n        /* \"#utility.yul\":4105:4106   */\n      0x00\n        /* \"#utility.yul\":4097:4103   */\n      dup3\n        /* \"#utility.yul\":4093:4107   */\n      add\n        /* \"#utility.yul\":4086:4120   */\n      mstore\n        /* \"#utility.yul\":3969:4127   */\n      pop\n      jump\t// out\n        /* \"#utility.yul\":4133:4498   */\n    tag_72:\n        /* \"#utility.yul\":4275:4278   */\n      0x00\n        /* \"#utility.yul\":4296:4362   */\n      tag_119\n        /* \"#utility.yul\":4360:4361   */\n      0x08\n        /* \"#utility.yul\":4355:4358   */\n      dup4\n        /* \"#utility.yul\":4296:4362   */\n      tag_67\n      jump\t// in\n    tag_119:\n        /* \"#utility.yul\":4289:4362   */\n      swap2\n      pop\n        /* \"#utility.yul\":4371:4464   */\n      tag_120\n        /* \"#utility.yul\":4460:4463   */\n      dup3\n        /* \"#utility.yul\":4371:4464   */\n      tag_71\n      jump\t// in\n    tag_120:\n        /* \"#utility.yul\":4489:4491   */\n      0x20\n        /* \"#utility.yul\":4484:4487   */\n      dup3\n        /* \"#utility.yul\":4480:4492   */\n      add\n        /* \"#utility.yul\":4473:4492   */\n      swap1\n      pop\n        /* \"#utility.yul\":4133:4498   */\n      swap2\n      swap1\n      pop\n      jump\t// out\n        /* \"#utility.yul\":4504:4923   */\n    tag_42:\n        /* \"#utility.yul\":4670:4674   */\n      0x00\n        /* \"#utility.yul\":4708:4710   */\n      0x20\n        /* \"#utility.yul\":4697:4706   */\n      dup3\n        /* \"#utility.yul\":4693:4711   */\n      add\n        /* \"#utility.yul\":4685:4711   */\n      swap1\n      pop\n        /* \"#utility.yul\":4757:4766   */\n      dup2\n        /* \"#utility.yul\":4751:4755   */\n      dup2\n        /* \"#utility.yul\":4747:4767   */\n      sub\n        /* \"#utility.yul\":4743:4744   */\n      0x00\n        /* \"#utility.yul\":4732:4741   */\n      dup4\n        /* \"#utility.yul\":4728:4745   */\n      add\n        /* \"#utility.yul\":4721:4768   */\n      mstore\n        /* \"#utility.yul\":4785:4916   */\n      tag_122\n        /* \"#utility.yul\":4911:4915   */\n      dup2\n        /* \"#utility.yul\":4785:4916   */\n      tag_72\n      jump\t// in\n    tag_122:\n        /* \"#utility.yul\":4777:4916   */\n      swap1\n      pop\n        /* \"#utility.yul\":4504:4923   */\n      swap2\n      swap1\n      pop\n      jump\t// out\n        /* \"#utility.yul\":4929:5120   */\n    tag_45:\n        /* \"#utility.yul\":4969:4972   */\n      0x00\n        /* \"#utility.yul\":4988:5008   */\n      tag_124\n        /* \"#utility.yul\":5006:5007   */\n      dup3\n        /* \"#utility.yul\":4988:5008   */\n      tag_56\n      jump\t// in\n    tag_124:\n        /* \"#utility.yul\":4983:5008   */\n      swap2\n      pop\n        /* \"#utility.yul\":5022:5042   */\n      tag_125\n        /* \"#utility.yul\":5040:5041   */\n      dup4\n        /* \"#utility.yul\":5022:5042   */\n      tag_56\n      jump\t// in\n    tag_125:\n        /* \"#utility.yul\":5017:5042   */\n      swap3\n      pop\n        /* \"#utility.yul\":5065:5066   */\n      dup3\n        /* \"#utility.yul\":5062:5063   */\n      dup3\n        /* \"#utility.yul\":5058:5067   */\n      add\n        /* \"#utility.yul\":5051:5067   */\n      swap1\n      pop\n        /* \"#utility.yul\":5086:5089   */\n      dup1\n        /* \"#utility.yul\":5083:5084   */\n      dup3\n        /* \"#utility.yul\":5080:5090   */\n      gt\n        /* \"#utility.yul\":5077:5113   */\n      iszero\n      tag_126\n      jumpi\n        /* \"#utility.yul\":5093:5111   */\n      tag_127\n      tag_70\n      jump\t// in\n    tag_127:\n        /* \"#utility.yul\":5077:5113   */\n    tag_126:\n        /* \"#utility.yul\":4929:5120   */\n      swap3\n      swap2\n      pop\n      pop\n      jump\t// out\n        /* \"#utility.yul\":5126:5297   */\n    tag_54:\n        /* \"#utility.yul\":5165:5168   */\n      0x00\n        /* \"#utility.yul\":5188:5212   */\n      tag_129\n        /* \"#utility.yul\":5206:5211   */\n      dup3\n        /* \"#utility.yul\":5188:5212   */\n      tag_56\n      jump\t// in\n    tag_129:\n        /* \"#utility.yul\":5179:5212   */\n      swap2\n      pop\n        /* \"#utility.yul\":5234:5238   */\n      0x00\n        /* \"#utility.yul\":5227:5232   */\n      dup3\n        /* \"#utility.yul\":5224:5239   */\n      sub\n        /* \"#utility.yul\":5221:5262   */\n      tag_130\n      jumpi\n        /* \"#utility.yul\":5242:5260   */\n      tag_131\n      tag_70\n      jump\t// in\n    tag_131:\n        /* \"#utility.yul\":5221:5262   */\n    tag_130:\n        /* \"#utility.yul\":5289:5290   */\n      0x01\n        /* \"#utility.yul\":5282:5287   */\n      dup3\n        /* \"#utility.yul\":5278:5291   */\n      sub\n        /* \"#utility.yul\":5271:5291   */\n      swap1\n      pop\n        /* \"#utility.yul\":5126:5297   */\n      swap2\n      swap1\n      pop\n      jump\t// out\n\n    auxdata: 0xa26469706673582212209cd936d5676d59b360302b5267e7b3776fb6f8b01c993df6a029f003f58d789364736f6c63430008130033\n}\n",
				"bytecode": {
					"linkReferences": {},
					"object": "608060405234801561001057600080fd5b506105ed806100206000396000f3fe608060405234801561001057600080fd5b50600436106100625760003560e01c806306661abd14610067578063371303c0146100855780635c975abb1461008f57806370119d06146100ad578063b3bcfa82146100c9578063bedb86fb146100d3575b600080fd5b61006f6100ef565b60405161007c91906102f2565b60405180910390f35b61008d6100f5565b005b61009761015e565b6040516100a49190610328565b60405180910390f35b6100c760048036038101906100c29190610374565b610171565b005b6100d1610253565b005b6100ed60048036038101906100e891906103cd565b6102bc565b005b60005481565b600160009054906101000a900460ff1615610145576040517f08c379a000000000000000000000000000000000000000000000000000000000815260040161013c90610457565b60405180910390fd5b600080815480929190610157906104a6565b9190505550565b600160009054906101000a900460ff1681565b600160009054906101000a900460ff16156101c1576040517f08c379a00000000000000000000000000000000000000000000000000000000081526004016101b890610457565b60405180910390fd5b8060648110610205576040517f08c379a00000000000000000000000000000000000000000000000000000000081526004016101fc9061053a565b60405180910390fd5b600a600080828254610217919061055a565b925050819055508160008082825461022f919061055a565b925050819055506063600080828254610248919061055a565b925050819055505050565b600160009054906101000a900460ff16156102a3576040517f08c379a000000000000000000000000000000000000000000000000000000000815260040161029a90610457565b60405180910390fd5b6000808154809291906102b59061058e565b9190505550565b80600160006101000a81548160ff02191690831515021790555050565b6000819050919050565b6102ec816102d9565b82525050565b600060208201905061030760008301846102e3565b92915050565b60008115159050919050565b6103228161030d565b82525050565b600060208201905061033d6000830184610319565b92915050565b600080fd5b610351816102d9565b811461035c57600080fd5b50565b60008135905061036e81610348565b92915050565b60006020828403121561038a57610389610343565b5b60006103988482850161035f565b91505092915050565b6103aa8161030d565b81146103b557600080fd5b50565b6000813590506103c7816103a1565b92915050565b6000602082840312156103e3576103e2610343565b5b60006103f1848285016103b8565b91505092915050565b600082825260208201905092915050565b7f506175736564207761732073657420746f207472756500000000000000000000600082015250565b60006104416016836103fa565b915061044c8261040b565b602082019050919050565b6000602082019050818103600083015261047081610434565b9050919050565b7f4e487b7100000000000000000000000000000000000000000000000000000000600052601160045260246000fd5b60006104b1826102d9565b91507fffffffffffffffffffffffffffffffffffffffffffffffffffffffffffffffff82036104e3576104e2610477565b5b600182019050919050565b7f78203e3d20313030000000000000000000000000000000000000000000000000600082015250565b60006105246008836103fa565b915061052f826104ee565b602082019050919050565b6000602082019050818103600083015261055381610517565b9050919050565b6000610565826102d9565b9150610570836102d9565b925082820190508082111561058857610587610477565b5b92915050565b6000610599826102d9565b9150600082036105ac576105ab610477565b5b60018203905091905056fea26469706673582212209cd936d5676d59b360302b5267e7b3776fb6f8b01c993df6a029f003f58d789364736f6c63430008130033",
					"opcodes": "PUSH1 0x80 PUSH1 0x40 MSTORE CALLVALUE DUP1 ISZERO PUSH2 0x10 JUMPI PUSH1 0x0 DUP1 REVERT JUMPDEST POP PUSH2 0x5ED DUP1 PUSH2 0x20 PUSH1 0x0 CODECOPY PUSH1 0x0 RETURN INVALID PUSH1 0x80 PUSH1 0x40 MSTORE CALLVALUE DUP1 ISZERO PUSH2 0x10 JUMPI PUSH1 0x0 DUP1 REVERT JUMPDEST POP PUSH1 0x4 CALLDATASIZE LT PUSH2 0x62 JUMPI PUSH1 0x0 CALLDATALOAD PUSH1 0xE0 SHR DUP1 PUSH4 0x6661ABD EQ PUSH2 0x67 JUMPI DUP1 PUSH4 0x371303C0 EQ PUSH2 0x85 JUMPI DUP1 PUSH4 0x5C975ABB EQ PUSH2 0x8F JUMPI DUP1 PUSH4 0x70119D06 EQ PUSH2 0xAD JUMPI DUP1 PUSH4 0xB3BCFA82 EQ PUSH2 0xC9 JUMPI DUP1 PUSH4 0xBEDB86FB EQ PUSH2 0xD3 JUMPI JUMPDEST PUSH1 0x0 DUP1 REVERT JUMPDEST PUSH2 0x6F PUSH2 0xEF JUMP JUMPDEST PUSH1 0x40 MLOAD PUSH2 0x7C SWAP2 SWAP1 PUSH2 0x2F2 JUMP JUMPDEST PUSH1 0x40 MLOAD DUP1 SWAP2 SUB SWAP1 RETURN JUMPDEST PUSH2 0x8D PUSH2 0xF5 JUMP JUMPDEST STOP JUMPDEST PUSH2 0x97 PUSH2 0x15E JUMP JUMPDEST PUSH1 0x40 MLOAD PUSH2 0xA4 SWAP2 SWAP1 PUSH2 0x328 JUMP JUMPDEST PUSH1 0x40 MLOAD DUP1 SWAP2 SUB SWAP1 RETURN JUMPDEST PUSH2 0xC7 PUSH1 0x4 DUP1 CALLDATASIZE SUB DUP2 ADD SWAP1 PUSH2 0xC2 SWAP2 SWAP1 PUSH2 0x374 JUMP JUMPDEST PUSH2 0x171 JUMP JUMPDEST STOP JUMPDEST PUSH2 0xD1 PUSH2 0x253 JUMP JUMPDEST STOP JUMPDEST PUSH2 0xED PUSH1 0x4 DUP1 CALLDATASIZE SUB DUP2 ADD SWAP1 PUSH2 0xE8 SWAP2 SWAP1 PUSH2 0x3CD JUMP JUMPDEST PUSH2 0x2BC JUMP JUMPDEST STOP JUMPDEST PUSH1 0x0 SLOAD DUP2 JUMP JUMPDEST PUSH1 0x1 PUSH1 0x0 SWAP1 SLOAD SWAP1 PUSH2 0x100 EXP SWAP1 DIV PUSH1 0xFF AND ISZERO PUSH2 0x145 JUMPI PUSH1 0x40 MLOAD PUSH32 0x8C379A000000000000000000000000000000000000000000000000000000000 DUP2 MSTORE PUSH1 0x4 ADD PUSH2 0x13C SWAP1 PUSH2 0x457 JUMP JUMPDEST PUSH1 0x40 MLOAD DUP1 SWAP2 SUB SWAP1 REVERT JUMPDEST PUSH1 0x0 DUP1 DUP2 SLOAD DUP1 SWAP3 SWAP2 SWAP1 PUSH2 0x157 SWAP1 PUSH2 0x4A6 JUMP JUMPDEST SWAP2 SWAP1 POP SSTORE POP JUMP JUMPDEST PUSH1 0x1 PUSH1 0x0 SWAP1 SLOAD SWAP1 PUSH2 0x100 EXP SWAP1 DIV PUSH1 0xFF AND DUP2 JUMP JUMPDEST PUSH1 0x1 PUSH1 0x0 SWAP1 SLOAD SWAP1 PUSH2 0x100 EXP SWAP1 DIV PUSH1 0xFF AND ISZERO PUSH2 0x1C1 JUMPI PUSH1 0x40 MLOAD PUSH32 0x8C379A000000000000000000000000000000000000000000000000000000000 DUP2 MSTORE PUSH1 0x4 ADD PUSH2 0x1B8 SWAP1 PUSH2 0x457 JUMP JUMPDEST PUSH1 0x40 MLOAD DUP1 SWAP2 SUB SWAP1 REVERT JUMPDEST DUP1 PUSH1 0x64 DUP2 LT PUSH2 0x205 JUMPI PUSH1 0x40 MLOAD PUSH32 0x8C379A000000000000000000000000000000000000000000000000000000000 DUP2 MSTORE PUSH1 0x4 ADD PUSH2 0x1FC SWAP1 PUSH2 0x53A JUMP JUMPDEST PUSH1 0x40 MLOAD DUP1 SWAP2 SUB SWAP1 REVERT JUMPDEST PUSH1 0xA PUSH1 0x0 DUP1 DUP3 DUP3 SLOAD PUSH2 0x217 SWAP2 SWAP1 PUSH2 0x55A JUMP JUMPDEST SWAP3 POP POP DUP2 SWAP1 SSTORE POP DUP2 PUSH1 0x0 DUP1 DUP3 DUP3 SLOAD PUSH2 0x22F SWAP2 SWAP1 PUSH2 0x55A JUMP JUMPDEST SWAP3 POP POP DUP2 SWAP1 SSTORE POP PUSH1 0x63 PUSH1 0x0 DUP1 DUP3 DUP3 SLOAD PUSH2 0x248 SWAP2 SWAP1 PUSH2 0x55A JUMP JUMPDEST SWAP3 POP POP DUP2 SWAP1 SSTORE POP POP POP JUMP JUMPDEST PUSH1 0x1 PUSH1 0x0 SWAP1 SLOAD SWAP1 PUSH2 0x100 EXP SWAP1 DIV PUSH1 0xFF AND ISZERO PUSH2 0x2A3 JUMPI PUSH1 0x40 MLOAD PUSH32 0x8C379A000000000000000000000000000000000000000000000000000000000 DUP2 MSTORE PUSH1 0x4 ADD PUSH2 0x29A SWAP1 PUSH2 0x457 JUMP JUMPDEST PUSH1 0x40 MLOAD DUP1 SWAP2 SUB SWAP1 REVERT JUMPDEST PUSH1 0x0 DUP1 DUP2 SLOAD DUP1 SWAP3 SWAP2 SWAP1 PUSH2 0x2B5 SWAP1 PUSH2 0x58E JUMP JUMPDEST SWAP2 SWAP1 POP SSTORE POP JUMP JUMPDEST DUP1 PUSH1 0x1 PUSH1 0x0 PUSH2 0x100 EXP DUP2 SLOAD DUP2 PUSH1 0xFF MUL NOT AND SWAP1 DUP4 ISZERO ISZERO MUL OR SWAP1 SSTORE POP POP JUMP JUMPDEST PUSH1 0x0 DUP2 SWAP1 POP SWAP2 SWAP1 POP JUMP JUMPDEST PUSH2 0x2EC DUP2 PUSH2 0x2D9 JUMP JUMPDEST DUP3 MSTORE POP POP JUMP JUMPDEST PUSH1 0x0 PUSH1 0x20 DUP3 ADD SWAP1 POP PUSH2 0x307 PUSH1 0x0 DUP4 ADD DUP5 PUSH2 0x2E3 JUMP JUMPDEST SWAP3 SWAP2 POP POP JUMP JUMPDEST PUSH1 0x0 DUP2 ISZERO ISZERO SWAP1 POP SWAP2 SWAP1 POP JUMP JUMPDEST PUSH2 0x322 DUP2 PUSH2 0x30D JUMP JUMPDEST DUP3 MSTORE POP POP JUMP JUMPDEST PUSH1 0x0 PUSH1 0x20 DUP3 ADD SWAP1 POP PUSH2 0x33D PUSH1 0x0 DUP4 ADD DUP5 PUSH2 0x319 JUMP JUMPDEST SWAP3 SWAP2 POP POP JUMP JUMPDEST PUSH1 0x0 DUP1 REVERT JUMPDEST PUSH2 0x351 DUP2 PUSH2 0x2D9 JUMP JUMPDEST DUP2 EQ PUSH2 0x35C JUMPI PUSH1 0x0 DUP1 REVERT JUMPDEST POP JUMP JUMPDEST PUSH1 0x0 DUP2 CALLDATALOAD SWAP1 POP PUSH2 0x36E DUP2 PUSH2 0x348 JUMP JUMPDEST SWAP3 SWAP2 POP POP JUMP JUMPDEST PUSH1 0x0 PUSH1 0x20 DUP3 DUP5 SUB SLT ISZERO PUSH2 0x38A JUMPI PUSH2 0x389 PUSH2 0x343 JUMP JUMPDEST JUMPDEST PUSH1 0x0 PUSH2 0x398 DUP5 DUP3 DUP6 ADD PUSH2 0x35F JUMP JUMPDEST SWAP2 POP POP SWAP3 SWAP2 POP POP JUMP JUMPDEST PUSH2 0x3AA DUP2 PUSH2 0x30D JUMP JUMPDEST DUP2 EQ PUSH2 0x3B5 JUMPI PUSH1 0x0 DUP1 REVERT JUMPDEST POP JUMP JUMPDEST PUSH1 0x0 DUP2 CALLDATALOAD SWAP1 POP PUSH2 0x3C7 DUP2 PUSH2 0x3A1 JUMP JUMPDEST SWAP3 SWAP2 POP POP JUMP JUMPDEST PUSH1 0x0 PUSH1 0x20 DUP3 DUP5 SUB SLT ISZERO PUSH2 0x3E3 JUMPI PUSH2 0x3E2 PUSH2 0x343 JUMP JUMPDEST JUMPDEST PUSH1 0x0 PUSH2 0x3F1 DUP5 DUP3 DUP6 ADD PUSH2 0x3B8 JUMP JUMPDEST SWAP2 POP POP SWAP3 SWAP2 POP POP JUMP JUMPDEST PUSH1 0x0 DUP3 DUP3 MSTORE PUSH1 0x20 DUP3 ADD SWAP1 POP SWAP3 SWAP2 POP POP JUMP JUMPDEST PUSH32 0x506175736564207761732073657420746F207472756500000000000000000000 PUSH1 0x0 DUP3 ADD MSTORE POP JUMP JUMPDEST PUSH1 0x0 PUSH2 0x441 PUSH1 0x16 DUP4 PUSH2 0x3FA JUMP JUMPDEST SWAP2 POP PUSH2 0x44C DUP3 PUSH2 0x40B JUMP JUMPDEST PUSH1 0x20 DUP3 ADD SWAP1 POP SWAP2 SWAP1 POP JUMP JUMPDEST PUSH1 0x0 PUSH1 0x20 DUP3 ADD SWAP1 POP DUP2 DUP2 SUB PUSH1 0x0 DUP4 ADD MSTORE PUSH2 0x470 DUP2 PUSH2 0x434 JUMP JUMPDEST SWAP1 POP SWAP2 SWAP1 POP JUMP JUMPDEST PUSH32 0x4E487B7100000000000000000000000000000000000000000000000000000000 PUSH1 0x0 MSTORE PUSH1 0x11 PUSH1 0x4 MSTORE PUSH1 0x24 PUSH1 0x0 REVERT JUMPDEST PUSH1 0x0 PUSH2 0x4B1 DUP3 PUSH2 0x2D9 JUMP JUMPDEST SWAP2 POP PUSH32 0xFFFFFFFFFFFFFFFFFFFFFFFFFFFFFFFFFFFFFFFFFFFFFFFFFFFFFFFFFFFFFFFF DUP3 SUB PUSH2 0x4E3 JUMPI PUSH2 0x4E2 PUSH2 0x477 JUMP JUMPDEST JUMPDEST PUSH1 0x1 DUP3 ADD SWAP1 POP SWAP2 SWAP1 POP JUMP JUMPDEST PUSH32 0x78203E3D20313030000000000000000000000000000000000000000000000000 PUSH1 0x0 DUP3 ADD MSTORE POP JUMP JUMPDEST PUSH1 0x0 PUSH2 0x524 PUSH1 0x8 DUP4 PUSH2 0x3FA JUMP JUMPDEST SWAP2 POP PUSH2 0x52F DUP3 PUSH2 0x4EE JUMP JUMPDEST PUSH1 0x20 DUP3 ADD SWAP1 POP SWAP2 SWAP1 POP JUMP JUMPDEST PUSH1 0x0 PUSH1 0x20 DUP3 ADD SWAP1 POP DUP2 DUP2 SUB PUSH1 0x0 DUP4 ADD MSTORE PUSH2 0x553 DUP2 PUSH2 0x517 JUMP JUMPDEST SWAP1 POP SWAP2 SWAP1 POP JUMP JUMPDEST PUSH1 0x0 PUSH2 0x565 DUP3 PUSH2 0x2D9 JUMP JUMPDEST SWAP2 POP PUSH2 0x570 DUP4 PUSH2 0x2D9 JUMP JUMPDEST SWAP3 POP DUP3 DUP3 ADD SWAP1 POP DUP1 DUP3 GT ISZERO PUSH2 0x588 JUMPI PUSH2 0x587 PUSH2 0x477 JUMP JUMPDEST JUMPDEST SWAP3 SWAP2 POP POP JUMP JUMPDEST PUSH1 0x0 PUSH2 0x599 DUP3 PUSH2 0x2D9 JUMP JUMPDEST SWAP2 POP PUSH1 0x0 DUP3 SUB PUSH2 0x5AC JUMPI PUSH2 0x5AB PUSH2 0x477 JUMP JUMPDEST JUMPDEST PUSH1 0x1 DUP3 SUB SWAP1 POP SWAP2 SWAP1 POP JUMP INVALID LOG2 PUSH5 0x6970667358 0x22 SLT KECCAK256 SWAP13 0xD9 CALLDATASIZE 0xD5 PUSH8 0x6D59B360302B5267 0xE7 0xB3 PUSH24 0x6FB6F8B01C993DF6A029F003F58D789364736F6C63430008 SGT STOP CALLER "
				},
				"gasEstimates": {
					"creation": {
						"codeDepositCost": "303400",
						"executionCost": "343",
						"totalCost": "303743"
					},
					"external": {
						"count()": "2407",
						"dec()": "26723",
						"inc()": "26657",
						"incBy(uint256)": "infinite",
						"paused()": "2493",
						"setPause(bool)": "24767"
					}
				},
				"methodIdentifiers": {
					"count()": "06661abd",
					"dec()": "b3bcfa82",
					"inc()": "371303c0",
					"incBy(uint256)": "70119d06",
					"paused()": "5c975abb",
					"setPause(bool)": "bedb86fb"
				}
			},
			"storageLayout": {
				"storage": [
					{
						"astId": 3,
						"contract": "Func.sol:FuncModifier",
						"label": "count",
						"offset": 0,
						"slot": "0",
						"type": "t_uint256"
					},
					{
						"astId": 5,
						"contract": "Func.sol:FuncModifier",
						"label": "paused",
						"offset": 0,
						"slot": "1",
						"type": "t_bool"
					}
				],
				"types": {
					"t_bool": {
						"encoding": "inplace",
						"label": "bool",
						"numberOfBytes": "1"
					},
					"t_uint256": {
						"encoding": "inplace",
						"label": "uint256",
						"numberOfBytes": "32"
					}
				}
			},
			"userdoc": {
				"kind": "user",
				"methods": {},
				"version": 1
			}
		}
	}
}